:1000000002C1000031C100002FC100002DC100005D
:100010002BC1000029C1000027C1000025C100003C
:1000200023C1000021C100001FC100001DC100004C
:100030001BC1000019C1000017C1000015C100005C
:1000400013C100000C9400170FC100000DC1000087
:100050000BC1000009C1000007C100000C942C1660
:1000600003C1000001C10000FFC00000FDC000008E
:10007000FBC00000F9C00000F7C00000F5C00000A0
:100080000C94D216F1C00000EFC00000EDC00000DB
:100090000C94F6150C94CC15E7C00000E5C00000E8
:1000A000E3C00000E1C000000C94A416DDC0000015
:1000B000DBC00000D9C00000D7C000000C94761649
:1000C000D3C00000D1C00000CFC00000CDC00000F0
:1000D000CBC00000C9C00000C7C00000C5C0000000
:1000E000C3C0000000002100240027002A002D00CA
:1000F0003000330001010000040107010A01000083
:100100002200250028002B002E00310034000201BF
:100110000000050108010B0100002000230026005B
:1001200029002C002F00320000010000030106010D
:10013000090105050505070508080808020202026D
:100140000A0A080804040404010101010101010173
:100150000303030303030303040707070C0C0C0C3E
:100160000C0C0C0C02020202060606060606060627
:100170000B0B0B0B0B0B0B0B0102102020080810B4
:100180002040102040800201020108040201010207
:1001900004081020408080402010080402018004E0
:1001A000020180402010080402010804020101023B
:1001B0000408102040800102040810204080000044
:1001C0000A0B02090C0D0E080703040100000000D1
:1001D000000000000000000000000000000000001F
:1001E00000000000000000000000121110000000DC
:1001F00000000000000000000000000000000000FF
:10020000000000002E1711241FBECFEFD1E2DEBF89
:10021000CDBF00E00CBF13E0A0E0B2E0EAE7F0E4FD
:1002200000E00BBF02C007900D92A43FB107D9F7C1
:100230002AE0A4EFB3E001C01D92AF36B207E1F7A8
:1002400011E0C3E0D1E000E006C021970109802F52
:10025000FE010E94151EC230D10780E00807A9F7F1
:100260000E9430190C943B20CBCE4F925F926F923C
:100270007F928F929F92AF92BF92CF92DF92EF9236
:10028000FF920F931F93CF93DF93C090370AD090C4
:10029000380AE090390AF0903A0A8091330A909136
:1002A000340AA091350AB091360AC81AD90AEA0A66
:1002B000FB0A60913B0A70913C0A80913D0A909143
:1002C0003E0A9B01AC010E942D1D4B015C01609117
:1002D000430A7091440A8091450A9091460A9B0115
:1002E000AC010E94761B9B01AC01C501B4010E94C8
:1002F000DE1B0E94461CC114D104E104F10409F084
:10030000D3C062307105810591050CF0F2C01092E6
:100310004B0A10924C0A10924D0A10924E0A1092FB
:100320003B0A10923C0A10923D0A10923E0A10922B
:100330005B0A10925C0A10925D0A10925E0ADF91CD
:10034000CF911F910F91FF90EF90DF90CF90BF90D2
:10035000AF909F908F907F906F905F904F90089597
:100360001016110612061306DCF46C157D058E05B9
:100370009F0524F42091290A2111BBC09B01AC01E7
:1003800088279927DC01821B930BA40BB50B809364
:100390005B0A90935C0AA0935D0AB0935E0AA9C0C1
:1003A000011511052105310509F4A3C06C157D0562
:1003B0008E059F050CF09DC08091290A882309F4C1
:1003C00098C030952095109501951F4F2F4F3F4FA6
:1003D00000935B0A10935C0A20935D0A30935E0AD7
:1003E00088C0011511052105310509F482C0882452
:1003F000992454018C189D08AE08BF08681579052A
:100400008A059B050CF075C08091290A811171C085
:10041000D8CFC090630AD090640AE090650AF0904B
:10042000660AA7019601C701B6010E94761B2B013F
:100430003C01C501B4010E94791C20E030E040E895
:1004400050E40E942D1D20E030E040E85FE30E9470
:10045000761B9B01AC01C301B2010E94DE1B9B0114
:10046000AC01C701B6010E94751BD62FC72F6C01C6
:10047000E090670AF090680A0091690A10916A0A90
:100480009701A8010E94291D18161CF4ED2EFC2EC0
:100490008601C701D8018093630A9093640AA093F0
:1004A000650AB093660A4CC000915B0A10915C0A21
:1004B00020915D0A30915E0A1C141D041E041F0465
:1004C0000CF44ECF10161106120613060CF089CF4D
:1004D0000027112798010C191D092E093F096017E3
:1004E0007107820793070CF049CF2091290A211147
:1004F00045CF80905B0A90905C0AA0905D0AB09016
:100500005E0A81149104A104B10409F082CF8091A4
:100510005F0A9091600AA091610AB091620A80938B
:10052000630A9093640AA093650AB093660A81E017
:100530001C141D041E041F040CF080E08093290A83
:100540003FEF831A930AA30AB30A80925B0A909240
:100550005C0AA0925D0AB0925E0AC090630AD090D5
:10056000640AE090650AF090660AC701B6010E942D
:100570004B1C60934B0A70934C0A80934D0A9093E6
:100580004E0AA701960160E074E284E799E40E94B4
:10059000DE1B60933B0A70933C0A80933D0A909364
:1005A0003E0A2091290A2111CACE905860933B0A35
:1005B00070933C0A80933D0A90933E0AC0CE4F92BE
:1005C0005F926F927F928F929F92AF92BF92CF92E3
:1005D000DF92EF92FF92CF93DF9300D01F92CDB7BF
:1005E000DEB780903B0A90903C0AA0903D0AB09004
:1005F0003E0A20E030E0A901C501B4010E94DA1BE7
:10060000882309F46DC0A5019401C501B4010E94BD
:100610002D1D6B017C016091430A7091440A809109
:10062000450A9091460A9B01AC010E94761B9B01F2
:10063000AC01C701B6010E94DE1B0E94461C6B0183
:100640007C014090330A5090340A6090350A7090D3
:10065000360A8091370A9091380AA091390AB091F0
:100660003A0A89839A83AB83BC8320E030E0A901F6
:10067000C501B4010E94291D18166CF59FEFC91A17
:10068000D90AE90AF90A4C0C5D1C6E1C7F1C898191
:100690009A81AB81BC8184159505A605B70501F14A
:1006A0004092370A5092380A6092390A70923A0A98
:1006B0000F900F900F900F90DF91CF91FF90EF90E0
:1006C000DF90CF90BF90AF909F908F907F906F9072
:1006D0005F904F90CACDC094D094E094F094D3CF63
:1006E0000F900F900F900F90DF91CF91FF90EF90B0
:1006F000DF90CF90BF90AF909F908F907F906F9042
:100700005F904F900895E9EBF9E030E020E04191EF
:100710005191452B71F4F901EE0FFF1FE754F64F8D
:10072000918380832C593F4FFC013383228381E0E6
:1007300008952F5F3F4F2931310549F780E0089533
:10074000AF92BF92CF92DF92EF92FF920F931F93DF
:10075000CF93DF936C017B018B01040F151FEB011D
:100760005E01AE18BF08C017D10759F06991D601D4
:10077000ED91FC910190F081E02DC6011995892B36
:1007800079F7C501DF91CF911F910F91FF90EF9005
:10079000DF90CF90BF90AF900895FC01538D448DB2
:1007A000252F30E0842F90E0821B930B541710F01C
:1007B000CF96089501970895FC01918D828D981729
:1007C00061F0A28DAE0FBF2FB11D5D968C91928D01
:1007D0009F5F9F73928F90E008958FEF9FEF089532
:1007E000FC01918D828D981731F0828DE80FF11DFB
:1007F000858D90E008958FEF9FEF0895FC01918D16
:10080000228D892F90E0805C9F4F821B91098F730E
:100810009927089581E094E0F1DF21E0892B09F424
:1008200020E0822F0895FC01A48DA80FB92FB11DDF
:10083000A35ABF4F2C91848D90E001968F73992716
:10084000848FA689B7892C93A089B1898C918370F4
:1008500080648C93938D848D981306C00288F389ED
:10086000E02D80818F7D80830895EF92FF920F931A
:100870001F93CF93DF93EC0181E0888F9B8D8C8D4C
:1008800098131AC0E889F989808185FF15C09FB740
:10089000F894EE89FF896083E889F9898081837003
:1008A000806480839FBF81E090E0DF91CF911F91B2
:1008B0000F91FF90EF900895F62E0B8D10E00F5FD3
:1008C0001F4F0F731127E02E8C8D8E110BC00FB6AA
:1008D00007FCFACFE889F989808185FFF5CFCE0141
:1008E000A2DFF2CFEB8DEC0FFD2FF11DE35AFF4F8E
:1008F000F0829FB7F8940B8FEA89FB898081806230
:10090000D0CFCF93DF93EC01888D8823B1F0AA89F3
:10091000BB89E889F9898C9185FD03C0808186FDBA
:100920000CC00FB607FCF7CF8C9185FFF2CF80810A
:1009300085FFEDCFCE0177DFEACFDF91CF9108952C
:1009400080E090E0892B49F080E090E0892B29F04D
:100950000E94000081110E94000080E090E0892B3D
:1009600021F058DF81110E94000080E090E0892B87
:1009700049F080E090E0892B29F00E94000081116D
:100980000E94000080E090E0892B49F080E090E038
:10099000892B29F00E94000081110C940000089519
:1009A0008150823108F05AC0E82FF0E08827E452E5
:1009B000FB4F8F4F0C94151EFC040005EE04F4044D
:1009C000F8042E05030509050D05130517051B057C
:1009D000210525052E0529052F0533058091800069
:1009E0008F77809380000895809180008F7DF9CF6C
:1009F00080918000877FF5CF84B58F7784BD08957F
:100A000084B58F7DFBCF8091B0008F778093B0004D
:100A100008958091B0008F7DF9CF809190008F77FD
:100A2000809390000895809190008F7DF9CF809100
:100A30009000877FF5CF8091A0008F778093A000F2
:100A400008958091A0008F7DF9CF8091A000877FCD
:100A5000F5CF809120018F778093200108958091B8
:100A600020018F7DF9CF80912001877FF5CFCF9333
:100A7000DF93E4ECF1E08491EEE7F1E0D491E8E378
:100A8000F1E0C491CC2399F081118ADFEC2FF0E0E2
:100A9000EE0FFF1FE85EFE4FA591B491EC91ED23A0
:100AA00081E090E009F480E0DF91CF91089580E04B
:100AB00090E0FACF1F93CF93DF93282F30E0F90116
:100AC000E254FE4F8491F901E858FE4FD491F901A8
:100AD000EE5CFE4FC491CC23A1F0162F811160DF94
:100AE000EC2FF0E0EE0FFF1FE250FF4FA591B49105
:100AF0008FB7F894EC91111108C0D095DE23DC93E8
:100B00008FBFDF91CF911F910895DE2BF8CF282F53
:100B1000E7ECF1E0E491E150E23108F0C8C0F0E028
:100B20008827EA56FA4F8F4F0C94151EA805AD057D
:100B3000B205BE05CA055706D605DE05E605F2056F
:100B4000FE050A061B062706570633063F064B0618
:100B500084B5806884BD27BD089584B5806284BD56
:100B600028BD089580918000806880938000422F86
:100B7000592F5093890040938800089580918000F8
:100B8000806280938000422F592F50938B004093B6
:100B90008A00089580918000886080938000422FB1
:100BA000592F50938D0040938C0008958091B00090
:100BB00080688093B0002093B30008958091B000C6
:100BC00080628093B0002093B400089580919000DB
:100BD000806880939000422F592F50939900409342
:100BE0009800089580919000806280939000422F39
:100BF000592F50939B0040939A0008958091900044
:100C0000886080939000422F592F50939D0040930D
:100C10009C0008958091A00080688093A00080913E
:100C2000A0008F7B8093A000422F592F5093A900E2
:100C30004093A80008958091A00080628093A00056
:100C4000422F592F5093AB004093AA0008958091F2
:100C5000A00088608093A000422F592F5093AD00D0
:100C60004093AC000895809120018068809320011A
:100C7000422F592F509329014093280108958091C4
:100C80002001806280932001422F592F50932B0125
:100C900040932A010895809120018860809320016B
:100CA000422F592F50932D0140932C01089561E05C
:100CB00089E000CFCF93DF9390E0FC01E858FE4F2E
:100CC00024918E5C9E4FFC0184918823D1F090E0AA
:100CD000880F991FFC01EC51FF4FA591B491FC01C5
:100CE000E250FF4FC591D491623071F49FB7F894F0
:100CF0003C91822F809583238C93E8812E2B28832F
:100D00009FBFDF91CF9108958FB7F894EC912E2B70
:100D10002C938FBFF6CF3FB7F8948091FD0390914D
:100D2000FE03A091FF03B091000426B5A89B05C067
:100D30002F3F19F00196A11DB11D3FBFBA2FA92F5A
:100D4000982F8827BC01CD01620F711D811D911D57
:100D500042E0660F771F881F991F4A95D1F70895C3
:100D60002FB7F8946091F9037091FA038091FB0317
:100D70009091FC032FBF0895CF93DF93FC01238153
:100D8000222329F1EC0161E0848194DF61E08D810F
:100D900091DF8B81843011F0883091F461E08E8195
:100DA00089DF61E08F8186DF8FA58F3F81F061E071
:100DB00081DF6EA581E068278FA5DF91CF917ACE84
:100DC000833011F0863081F761E08E81ECCFDF91C6
:100DD000CF910895CF93DF93FC012381222399F0D3
:100DE000EC010190F081E02D0480F581E02D60E0C0
:100DF00019958FA58F3F39F061E05CDF6EA58FA557
:100E0000DF91CF9157CEDF91CF910895DC01ED9125
:100E1000FC911197248135814770552766277727E4
:100E2000415051096109710947305105610571054A
:100E300070F4FA018827E05EF84F8F4F0C94151E6E
:100E40002B072D072F07310733073507370761E0D9
:100E5000CD01F901199465E0FBCF64E0F9CF66E0BC
:100E6000F7CF62E0F5CF6AE0F3CF68E0F1CF69E059
:100E7000EFCFCF93DF93EC01CB01BA0126E030E056
:100E800040E050E00E94181B623071058105910519
:100E900089F16CF46115710581059105D1F061301E
:100EA000710581059105F9F0DF91CF9108956430C6
:100EB00071058105910561F124F1653071058105A8
:100EC000910591F7E881F9810480F581E02D66E0D4
:100ED00006C0E881F9810480F581E02D64E0CE014F
:100EE000DF91CF911994E881F9810480F581E02D9B
:100EF00065E0F5CFE881F9810480F581E02D61E0BE
:100F0000EECFE881F9810480F581E02D63E0E7CF41
:100F1000E881F9810480F581E02D62E0E0CFDC0119
:100F2000ED91FC910480F581E02D437055276627F3
:100F30007727423051056105710571F04330510545
:100F40006105710559F0413051056105710511F0D8
:100F500065E0199466E0FDCF6AE0FBCF69E0F9CF68
:100F6000CF93DF93EC01CB01BA0123E030E040E006
:100F700050E00E94181B613071058105910599F0C0
:100F80006230710581059105A9F0672B682B692BEB
:100F9000C1F4E881F9810480F581E02D64E0CE019F
:100FA000DF91CF911994E881F9810480F581E02DDA
:100FB00061E0F5CFE881F9810480F581E02D62E000
:100FC000EECFDF91CF910895DC01ED91FC9104808B
:100FD000F581E02D4370552766277727423051056C
:100FE0006105710571F0433051056105710559F0D6
:100FF000413051056105710511F062E0199463E01B
:10100000FDCF61E0FBCF60E0F9CFCF93DF93EC0140
:10101000E881F9810480F581E02D8A8160E0811109
:1010200062E0CE011995E881F9810480F581E02D17
:101030008A8161E0811163E0CE0119958CA59DA59F
:101040008230910538F0880F991F880F991F0597F6
:101050000197F1F7E881F9810480F581E02D8A811B
:1010600060E0811162E0CE01DF91CF911994CF93BE
:10107000DF93EC0120E030E0A9016C897D898E8945
:101080009F890E94291D18162CF4E8A9F9A9DF915F
:10109000CF911994EAA9FBA9FACFCF92DF92EF92F0
:1010A000FF920F931F93CF93DF93DC011396CC91A4
:1010B000C43039F0C83051F1C33019F0C63041F1B5
:1010C000C2E08C010C5F1F4FF12CE12CC62ED12CFD
:1010D000D1E0F8016481C6010E2C02C09595879578
:1010E0000A94E2F780FD6D270F5F1F4F8081E2DCDD
:1010F000BFEFEB1AFB0AEC1660F3DF91CF911F9163
:101100000F91FF90EF90DF90CF900895C4E0D9CF7A
:10111000C3E0D7CFDC011396EC911397E93008F0C8
:1011200042C0F0E08827E856F74F8F4F0C94151E09
:10113000A108A908B008B708BE08D308C508D30895
:10114000CC08ED91FC9111970084F185E02DCD0143
:101150001994ED91FC9111970284F385E02DF7CF5E
:10116000ED91FC9111970484F585E02DF0CFED9180
:10117000FC9111970684F785E02DE9CFED91FC9164
:1011800011970088F189E02DE2CFED91FC91119744
:101190000288F389E02DDBCFED91FC911197048853
:1011A000F589E02DD4CF0895CF92DF92EF92FF9290
:1011B00080914B0A90914C0AA0914D0AB0914E0A31
:1011C000892B8A2B8B2B09F44AC0A5DD6B017C018E
:1011D00080914F0A9091500AA091510AB091520A01
:1011E000B701A601481B590B6A0B7B0B80914B0A78
:1011F00090914C0AA0914D0AB0914E0A4817590798
:101200006A077B0760F18091330A9091340AA091BC
:10121000350AB091360A2091290A222309F44AC0DE
:101220000196A11DB11D8093330A9093340AA093B7
:10123000350AB093360A4091330A5091340A6091CE
:10124000350A7091360A87E29AE064DFC0924F0A4D
:10125000D092500AE092510AF092520A06D820E049
:1012600030E0A90160913B0A70913C0A80913D0AEF
:1012700090913E0A0E94DA1B811120C081E0C0904B
:10128000370AD090380AE090390AF0903A0A409133
:10129000330A5091340A6091350A7091360AC416A7
:1012A000D506E606F70609F480E0FF90EF90DF90A0
:1012B000CF9008950197A109B109B5CF81E0F5CF8D
:1012C000CF92DF92EF92FF92CF93DF93EC016032E7
:1012D00082E07807CCF5653B710514F064EB70E0B3
:1012E000898128E830E0281B310987FD3395220FDA
:1012F000331F220F331F6901330FEE08FF088A8165
:1013000028E532E0281B310987FD3395220F331F72
:10131000220F331F032E000C440B550B2C193D09D3
:101320004E095F09DB0177FF02C0B0E0A0E00E9438
:101330003E1B24EB30E040E050E00E94181BC20E40
:10134000D31EE41EF51EB601E881E03370F5298155
:1013500088E890E0821B910927FD9395880F991FDB
:10136000880F991F681779077CF02A8188E592E039
:10137000821B910927FD9395880F991F880F991F4C
:10138000681779070CF4CB010297880F991F4FB7A4
:10139000F8942E2F30E0F901EE0FFF1FE20FF31F3C
:1013A000E256FB4F928381834FBFDF91CF91FF9035
:1013B000EF90DF90CF900895FC016281738184E209
:1013C0009AE07ECFFC016281738181E29AE078CF5E
:1013D0001F93CF93DF93EC01162F8881803308F0A1
:1013E0004DC061E0812F66DC8881282F30E0F90153
:1013F000EE0FFF1FE20FF31FE256FB4F1F736081DA
:10140000607C612B608319821A822CE0622F0E941B
:10141000F61D829FB001112430E020E0AB01420FA5
:10142000531FFA01EE0FFF1FE40FF51FE256FB4FAB
:10143000908196FD16C02F5F3F4F2C30310571F71C
:10144000813009F51092800082E080938100109233
:10145000850010928400B19A80916F008260809321
:101460006F00E8818E2F90E0FC01EE0FFF1FE80F68
:10147000F91FE256FB4F8081806480838881DF9171
:10148000CF911F910895823061F410929000809363
:101490009100109295001092940088BB8093710087
:1014A000E0CF833069F41092A00082E08093A10025
:1014B0001092A5001092A40089BB80937200D1CF36
:1014C0008111CFCF1092200182E0809321011092F0
:1014D0002501109224018ABB80937300C2CFAF9282
:1014E000BF92CF92DF92EF92FF920F931F93CF9311
:1014F000DF936B017A01EC01CC50DC4F28813CE09A
:10150000389F8001399F100D1124A0902E05B12C19
:1015100027FF1FC0FB011182108288818F5F8883A3
:1015200088819801280F311D87FD3A95F6012A150B
:101530003B051CF488818C30BCF18081918104963C
:1015400080349C4908F471C0F60180819181049631
:101550006EC088819801280F311D87FD3A952A15A4
:101560003B05DCF68881A801480F511D87FD5A957F
:10157000FA01EE0FFF1FE40FF51FE256FB4F8081CB
:1015800086FFCBCF8881F801E80FF11D87FDFA9522
:10159000CF01EE0FFF1FE80FF91FE256FB4F8081CE
:1015A00060E08F7387DAB9CF808191812881A801AB
:1015B000420F511D27FD5A959A01FA01EE0FFF1FA8
:1015C000E20FF31FE256FB4F21813281820F931FFE
:1015D000F7019183808388819801280F311D87FD51
:1015E0003A95F901EE0FFF1FE20FF31FE256FB4F92
:1015F000808186FF21C08881080F111D87FD1A9503
:10160000F801EE0FFF1FE00FF11FE256FB4F808144
:1016100061E08F73DF91CF911F910F91FF90EF9059
:10162000DF90CF90BF90AF9045CA80E49CE9F7016E
:10163000918380838FEF8883DF91CF911F910F91EA
:10164000FF90EF90DF90CF90BF90AF9008958A57B2
:101650009B4FFC018081089580EA92E0089581EC1F
:1016600092E00895FC01868597850895AF92BF9218
:10167000CF92DF92EF92FF920F931F93CF93DF935E
:1016800000D01F921F92CDB7DEB7643671054CF0C3
:10169000FC01EA57FB4F2081F12CE12C222309F4B5
:1016A00076C0DA017B018C01BC01615E7D4FED915A
:1016B000FC910190F081E02DCA011995680128EE96
:1016C000C21A2DEFD20A2FEFD6012C93F801E75E54
:1016D000FD4F2EEF20833196808331969083319693
:1016E000292F280F209520833196E0821696FC92B0
:1016F00045E050E030E020E0DC011696A417B50785
:1017000034F06191260F311D4F5F5F4FF7CF7C01A1
:10171000B8E0EB0EF11C800F911FFC01E15EFD4F64
:1017200020952083E1E0EE16E2E0FE06B4F45601D7
:10173000C5018C199D098E159F054CF5D80112968F
:101740008D919C91F50161915F01DC01ED91FC911E
:101750000190F081E02D1995EBCF8EE392E09A8312
:10176000898383E08B8380ED92E09D838C83D80115
:10177000ED91FC910190F081E02DAE014F5F5F4F44
:1017800067E070E0C8011995EE24EA94FE2CC701C9
:101790000F900F900F900F900F90DF91CF911F91AE
:1017A0000F91FF90EF90DF90CF90BF90AF90089592
:1017B0000F931F93CF93DF9300D000D000D01F92E0
:1017C000CDB7DEB78C0182E392E09A8389831B82D6
:1017D0001C821D821E821F82188619861A86D801D5
:1017E000ED91FC910190F081E02DAE014F5F5F4FD4
:1017F0006AE070E0C8011995B3DAF8016087718773
:10180000828793872A960FB6F894DEBF0FBECDBFAE
:10181000DF91CF911F910F910895CF92DF92EF92B8
:10182000FF92DC011D921D921D921C921397FB01E9
:1018300030E020E0419150E0022E02C0440F551FDD
:101840000A94E2F7052E000C660B770BCD90DD9025
:10185000ED90FC9013974C295D296E297F294D93BB
:101860005D936D937C931397285F3F4F2032310532
:1018700009F7FF90EF90DF90CF900895FC0140832F
:101880005183128213820895CF93DF93EC018A81F2
:101890009B81AC81BD81B7FF29C0E9D8019721F5B3
:1018A0008091330A9091340AA091350AB091360A9A
:1018B0000A96A11DB11D4091370A5091380A6091D6
:1018C000390A70913A0A84179507A607B70751F0AD
:1018D0008093370A9093380AA093390AB0933A0A52
:1018E0000E94350161DCD9CF0E94DF028A819B8191
:1018F000AC81BD81181619061A061B063CF5B7D82F
:10190000019721F58091330A9091340AA091350A0C
:10191000B091360A0A97A109B1094091370A50914E
:10192000380A6091390A70913A0A84179507A60718
:10193000B70751F08093370A9093380AA093390A79
:10194000B0933A0A0E9435012FDCD9CFDF91CF91B5
:101950000C94DF02FB014081518162817381FC01A3
:10196000428353836483758384E090E008950F93EA
:101970001F93CF93DF938C01EC012696CE01EADF13
:10198000D8011C96ED91FC91CE01DF91CF911F9172
:101990000F911994DC01FB0112964C91129713964A
:1019A0002C91139714969C91149715968C914083C3
:1019B00021839283838384E090E0089589E093E01B
:1019C000089586E092E008958AE293E008958BE41A
:1019D00093E008954F925F926F927F928F929F92C1
:1019E000AF92BF92EF92FF920F931F93CF93DF932B
:1019F00000D01F92CDB7DEB77C018B01FB01819136
:101A0000BF01F7018283CE01019607DF89819A81A8
:101A1000AB81BC814C015D01F5E08F0E911CA11CD6
:101A2000B11CA8014C5F5F4FFA0125E030E02901AD
:101A3000712C612C481459046A047B0428F46181D8
:101A400061932F5F3F4FF3CFF801E80FF91F148226
:101A5000F7015483438305960F900F900F900F90DA
:101A6000DF91CF911F910F91FF90EF90BF90AF90BA
:101A70009F908F907F906F905F904F9008958EE52C
:101A800093E008958FE793E008954F925F926F92ED
:101A90007F928F929F92AF92BF92CF92DF92EF92FE
:101AA000FF920F931F93CF93DF93CDB7DEB72C97A1
:101AB0000FB6F894DEBF0FBECDBF7C018B01DB01FA
:101AC0008C9190E0F7019383828311962C91922B55
:101AD000938382836E5F7F4FCE0101969EDE898065
:101AE0009A80AB80BC8024013501F6E04F0E511C7A
:101AF000611C711C98012B5F3F4FF90186E090E05B
:101B0000AC0170E060E0441555056605770520F4EA
:101B1000418141930196F4CFB4016A5F7F4FF80190
:101B2000E80DF91D1582D70115963C932E93149755
:101B3000600F711FCE01059670DEBAE08B0E911C0E
:101B40004D805E806F807884C401092C000CAA0B44
:101B5000BB0B5C016D01A40CB51CC61CD71CF801A5
:101B6000E80DF91DAF01401B510B70E060E04A1514
:101B70005B056C057D0538F42191AF014250510998
:101B8000DA012C93EFCF480C591CB801640D751D78
:101B9000FB0131971082C4010197800F911FF7015B
:101BA00097838683CE01099638DE92012C5F3F4FE2
:101BB00089849A84AB84BC84A901032E000C660B33
:101BC000770B480D591D6A1D7B1DF801E20FF31FAD
:101BD000CF01801B910BB0E0A0E084179507A6070A
:101BE000B70728F48191DF0112978C93F1CFC901D7
:101BF000880D991DF801E80FF91FDF0111971C925C
:101C000021503109020F131FD70119961C930E930F
:101C100018972181428150E070E060E0BA015527B9
:101C20004427522B2081422B2381722BF7014287BC
:101C300053876487758704962C960FB6F894DEBF99
:101C40000FBECDBFDF91CF911F910F91FF90EF900D
:101C5000DF90CF90BF90AF909F908F907F906F90CC
:101C60005F904F90089588E993E0089589EB93E0A1
:101C70000895FC01DB014C9150E070E060E042838C
:101C800053836483758311968C911197582B4283EB
:101C900053836483758312968C911297682B4283C9
:101CA00053836483758313968C911397782B4283A7
:101CB00053836483758314964C91149750E070E0BD
:101CC00060E0468357836087718715968C911597DE
:101CD000582B468357836087718716968C91169789
:101CE000682B468357836087718717968C91782B72
:101CF000468357836087718788E090E00895DC0110
:101D0000FB0112968C911297808313968C911397F6
:101D1000818314968C911497828315968C911597D4
:101D2000838316968C911697848317968C911797B8
:101D3000858318968C911897868319968C91878342
:101D400088E090E008954F925F926F927F928F9219
:101D50009F92AF92BF92CF92DF92EF92FF926B0170
:101D60007C0120E030E0A9010E94DA1B87FF04C05B
:101D7000F7FAF094F7F8F0948090430A9090440AB0
:101D8000A090450AB090460AA7019601C501B4018A
:101D90000E94DA1B882309F456C060915B0A709197
:101DA0005C0A80915D0A90915E0A0E94791C2B0169
:101DB0003C01A7019601C501B4010E94DE1B9B01F5
:101DC000AC01C301B2010E942D1D0E94461C60930C
:101DD0005B0A70935C0A80935D0A90935E0AA70188
:101DE000960160E070E080E090E40E94DE1B0E94BB
:101DF000941D26E53EE04DE25FE30E942D1D20E0AC
:101E000034E244E759E40E942D1D60935F0A709309
:101E1000600A8093610A9093620AC092430AD0924A
:101E2000440AE092450AF092460AFF90EF90DF9054
:101E3000CF90BF90AF909F908F907F906F905F906A
:101E40004F900C943501FF90EF90DF90CF90BF90B2
:101E5000AF909F908F907F906F905F904F9008957C
:101E6000FC0182819381A481B58161E0B7FF0BC041
:101E700089E00E945A0682E890E00E94870560E0AF
:101E800088E00C945A05892B8A2B8B2B49F089E02A
:101E90000E945A0682E890E00E94870561E0F0CF38
:101EA00089E00E945A0661E089E00E945A05F6CF57
:101EB0002F923F924F925F926F927F928F929F925A
:101EC000AF92BF92CF92DF92EF92FF920F931F9348
:101ED000CF93DF93CDB7DEB72E970FB6F894DEBF62
:101EE0000FBECDBF8C016B01DB018D909D90AD903D
:101EF000BC90FC0182819381A481B58188159905EC
:101F0000AA05BB0570F4B401660F771F660F771F33
:101F1000828593850E94311ED8011B969C938E93D7
:101F20001A97F80182829382A482B582C60140E0AA
:101F300050E0BA01A4E0EA2EF12C98012A5F3F4F4D
:101F4000DC011596EC91159716964C901697512C2E
:101F5000712C612C3201552444245E2A1496EC9194
:101F600014974E2A1796EC917E2AD7011701E4E0C8
:101F70002E0E311C71010496F80182809380A4809A
:101F8000B580481559056A057B05A8F44682578235
:101F9000608671861497A284B384AA0DBB1DE4E009
:101FA000BE2EF90101900D92BA94E1F74F5F5F4F99
:101FB0006F4F7F4FC5CF84859585A685B7858415DE
:101FC0009505A605B70570F4B201660F771F660F79
:101FD000771F848995890E94311ED80155969C935C
:101FE0008E935497F8014486558666867786C60197
:101FF000820D931D412C512C32011C019801205F50
:102000003F4FDC0111966C91119712968C901297AC
:10201000912CB12CA12C540199248824962A6C91DE
:10202000862A13966C91B62AB4E0EB0EF11CF801E7
:102030004485558566857785441655066606770678
:10204000C0F4808A918AA28AB38ABC01621973099A
:10205000A489B589A60FB71F64E0F90101900D921C
:102060006A95E1F7BFEF4B1A5B0A6B0A7B0A04968D
:10207000C8CF86899789A08DB18D88159905AA0545
:10208000BB0560F4B401660F771F848D958D0E94A7
:10209000311ED8015D969C938E935C97F801868AD9
:1020A000978AA08EB18E412C512C32011801FAE191
:1020B0002F0E311CF80186899789A08DB18D4816A5
:1020C00059066A067B0608F05BC0B6016E0D7F1DDF
:1020D000CE010196A2DB97012C5F3F4F3E872D87F3
:1020E00089809A80AB80BC80C901032E000CAA0BAA
:1020F000BB0BAC01BD01480D591D6A1D7B1D4987F5
:102100005A876B877C87F901EC0DFD1D9F012C1907
:102110003D09B90190E080E029853A854B855C85D1
:10212000621773078407950728F42191DF0112973E
:102130002C93ECCFED84FE84E80CF91CF601EE0D37
:10214000FF1D319710828D859E8501978C0D9D1DF9
:10215000D8015B969C938E935A97C201880F991F62
:102160005C96ED91FC91E80FF91FD1018D919C9146
:1021700091838083BFEF4B1A5B0A6B0A7B0A9ACF6D
:10218000C7012E960FB6F894DEBF0FBECDBFDF910C
:10219000CF911F910F91FF90EF90DF90CF90BF9064
:1021A000AF909F908F907F906F905F904F903F90F7
:1021B0002F9008952F923F924F925F926F927F924D
:1021C0008F929F92AF92BF92CF92DF92EF92FF9247
:1021D0000F931F93CF93DF93CDB7DEB7A6970FB6BC
:1021E000F894DEBF0FBECDBF8C010E94B0064B013C
:1021F0005C01980125573B4F3E8B2D8BF901808167
:102200009181A281B38175016401C81AD90AEA0AD1
:10221000FB0AD701C601893F9A42A105B10510F01A
:1022200035971082180134E8231A3BEF330AD101A5
:102230008D919C91892B79F0F801E157FB4F8081BA
:102240009181A281B38188159905AA05BB0518F46F
:10225000F1011182108298012C573B4F3A8B298B48
:10226000A80140585B4F5C8B4B8BC8014896988FF8
:102270008F8BD801AA57BB4FBC8FAB8FF801EC56A0
:10228000FB4FFE8FED8F215F3F4F38A32F8F4250C2
:102290005109588B4F8786599B4F9A8F898F199672
:1022A000BAA3A9A3A50194012C5E3F4F4F4F5F4FE6
:1022B0002BA33CA34DA35EA3F80184899589A6892D
:1022C000B789892B8A2B8B2BB1F5D80112968D916A
:1022D0009C91DC01ED91FC910284F385E02D199530
:1022E0009C0197FF3CC0F801EA57FB4F808188238F
:1022F000F9F07801B9E7EB1ABBEFFB0AF70180812F
:102300009181A281B381A5019401281B390B4A0B4D
:102310005B0BDA01C901853C9940A105B10540F08C
:10232000C80146DAD7018D929D92AD92BC92139767
:1023300090E080E0B4C10E94B006681979098A096A
:102340009B09F801C488D588E688F788C616D706A1
:10235000E806F90608F0B9CF8EEF9FEFA0C1A98972
:10236000BA898D919C911197820F931F8D939C93A5
:10237000F1014081518147305105F9F4A98DBA8DA1
:102380008D919C911197AC014F5F5F4F4D935C9382
:10239000800F911FFC01208FAF85B8898D919C9192
:1023A000119701978D939C93892B09F085CF88E035
:1023B00090E0F101918380837FCF4115510521F594
:1023C0002F3F310581F481E090E091838083CBA0A1
:1023D000DCA0EDA0FEA0A9A1BAA1CD92DD92ED9264
:1023E000FC92139769CF0E94B006681979098A098F
:1023F0009B09693873418105910508F45DCFF801A7
:10240000EA57FB4F1082A8CF4130510581F42E3F8F
:10241000310519F482E090E0CCCF11821082EB8D6F
:10242000FC8D8081811148CFC801C2D945CF42308F
:10243000510591F4AF85B8892D933C93E98DFA8DC0
:102440001182108283E090E0D1018D939C93E98901
:10245000FA893183208330CF4330510571F4322F14
:102460002227AF85B8898D919C911197280F391F2C
:102470002D933C9384E090E09CCF4430510579F457
:1024800060E071E00E94021E8F3F910529F485E013
:1024900090E09183808310CF118210820DCF453060
:1024A000510569F4AB89BC892D933C9386E090E09B
:1024B00091838083A989BA892D933C93FDCE4630C0
:1024C0005105A1F4322F2227EB89FC89808191816B
:1024D000280F391F3183208387E090E0D1018D934D
:1024E0009C93EF85F889808191815ECF48305105BA
:1024F00009F0E2CE1182108260E071E00E94021EBB
:102500008F3F910509F0D8CEAB89BC89ED91FC9144
:10251000309709F0DDC0C8014BD986E292E09A837A
:1025200089831C821B8288E093E09E838D83988739
:102530008F839A8789871B861C861D861E86680165
:10254000B8EECB1ABBEFDB0A7801E6EBEE1AEBEF45
:10255000FE0A412C22E0522E612C712CD601ED9105
:10256000FC913097A9F1848195819C838B83808134
:1025700091819E838D8382819381DC01ED91FC9119
:102580000480F581E02D199598878F83D601ED9110
:10259000FC9182819381DC01ED91FC910680F781B1
:1025A000E02D19959A8789874B865C866D867E8695
:1025B000D601ED91FC9160857185D801ED91FC917A
:1025C0000190F081E02DAE014F5F5F4FC80119957A
:1025D000B2E0CB0ED11CEC14FD0409F0BFCF412CAE
:1025E00092E0592E612C712CF701A081B1811097D6
:1025F000E1F112968D919C9113979C838B83149695
:102600008D919C9115979E838D83ED91FC911197EF
:102610000480F581E02DCD01199598878F83D7012E
:102620008D919C91DC01ED91FC910680F781E02D6C
:1026300019959A8789874B865C866D867E86D80138
:10264000ED91FC91C080D180F70180819181DC0106
:10265000ED91FC910280F381E02D1995AE014F5F61
:102660005F4FBC01C801F6011995F2E0EF0EF11CB5
:10267000E214F30409F0B8CFF801EA57FB4F81E008
:102680008083319680829182A282B382AD89BE8995
:102690008D929D92AD92BC9213978FEF9FEFA6966D
:1026A0000FB6F894DEBF0FBECDBFDF91CF911F9163
:1026B0000F91FF90EF90DF90CF90BF90AF909F90E1
:1026C0008F907F906F905F904F903F902F900895E4
:1026D000EA30F10509F09DC082E392E09A83898394
:1026E0001B821C821D821E821F82188619861A86F2
:1026F0000E94B006F801C084D184E284F3849B0177
:10270000AC012C193D094E095F0969017A016F89F5
:10271000788DCE010196ADDAC701B60128EE33E01F
:1027200040E050E0B1D769017A019B01AC018B8197
:102730009C81AD81BE818C0D9D1DAE1DBF1D8B8307
:102740009C83AD83BE8360E472E48FE090E00E94DE
:10275000E71DCF80D884E984FA84DC01CB018C0D9D
:102760009D1DAE1DBF1D8F839887A987BA870E94C4
:10277000B006CF80D884E984FA8436E3D31A35E6EC
:10278000E30A34ECF30A28EE33E040E050E07CD773
:1027900029013A019B01AC0160E472E48FE090E012
:1027A0000E94E71DA7019601261B370B480B590B0A
:1027B000CA01B9012B813C814D815E8121503109D3
:1027C0004109510969017A01C418D508E608F708DA
:1027D0002601370120E03AEC4AE95BE355D7420E87
:1027E000531E641E751ED8011C964D925D926D920B
:1027F0007C921F97F801608B718B828B938B0E9468
:10280000B006AD89BE896D937D938D939C9313978C
:1028100053CDE630F10551F46F89788D8D8D9E8D05
:1028200047DB81E0EF8DF8A1808346CDEB30F105E9
:1028300021F4AB8DBC8D1C923FCDEF53FE4FEE0FBC
:10284000FF1FE00FF11F80819181009709F434CDC3
:10285000DC01ED91FC910190F081E02D6F89788D84
:1028600019952ACD4F925F926F927F928F929F928D
:10287000AF92BF92CF92DF92EF92FF920F931F938E
:10288000CF93DF93EC017B018A81FB0180838B81F5
:1028900081838C8182838D8183833496412C512C5A
:1028A000320104E010E09F012F5F3F4FCF010296FD
:1028B000DF011396A8010C5F1F4F8A809B80AC80BC
:1028C000BD80481459046A047B04C8F4AA85BB85FA
:1028D000A40FB51F14974C9111962C911197129635
:1028E0009C91129713968C914083218392838383CA
:1028F0008FEF481A580A680A780A3496D4CF4C8564
:1029000040834D85F90140832E85FC0120838F850E
:102910008C93F701E00FF11F412C512C3201AF01D4
:102920009F012F5F3F4FCF010296DF0113960C5F8F
:102930001F4F8C849D84AE84BF84481459046A045C
:102940007B04D8F4CF01841B950BAC89BD89A80FFB
:10295000B91F3C9111962C91119712969C91129748
:1029600013968C9130832183928383838FEF481A4F
:10297000580A680A780A3496D3CF4E8940834F8923
:10298000F9014083288DFC012083898D8C93412C93
:10299000512C32018E899F89A88DB98D4816590610
:1029A0006A067B0680F55201AA0CBB1CEC8DFD8DDE
:1029B000EA0DFB1DA081B181FD0101900020E9F726
:1029C00031976F01CA1ADB0AA60170E060E0C70107
:1029D000800F911F0E943E0C0C5F1F4F8C8D9D8DB0
:1029E000A80EB91EF50160817181A601C701800F93
:1029F000911F0E940D1F0C0D1D1DFFEF4F1A5F0A46
:102A00006F0A7F0AC7CFC801DF91CF911F910F9145
:102A1000FF90EF90DF90CF90BF90AF909F908F90FE
:102A20007F906F905F904F900895EF92FF920F9379
:102A30001F93CF93DF938C017B01DC0112962C91C5
:102A40001297FB012193CF011396ED91FC91EF01B9
:102A500009900020E9F72197CE1BDF0BAE0170E053
:102A600060E00E943E0CD80113966D917C91AE01FE
:102A7000C70105960E940D1FCE010596DF91CF91EB
:102A80001F910F91FF90EF900895CF92DF92EF92F8
:102A9000FF920F931F93CF93DF936C01EB01DC0147
:102AA00012968C911297888313968C911397898331
:102AB0001496ED91FC91DF010D900020E9F78D0156
:102AC000015011090E1B1F0BA80170E060E0CE0140
:102AD00002960E943E0CF60164817581A801CE0128
:102AE00006960E940D1FC8010696F601A681B781C1
:102AF000FD0101900020E9F731977F01EA1AFB0AF6
:102B0000A70170E060E08C0F9D1F0E943E0C065FE5
:102B10001F4FD60116966D917C91A701CE01800FB3
:102B2000911F0E940D1F0E0D1F1DF601A085B1857E
:102B3000FD0101900020E9F731977F01EA1AFB0AB5
:102B4000A70170E060E0CE01800F911F0E943E0C53
:102B50000C5F1F4FD60118966D917C91A701CE0195
:102B6000800F911F0E940D1FC701800F911FF6015A
:102B70006285438534852585C80FD91F68834983BD
:102B80003A832B830496DF91CF911F910F91FF9091
:102B9000EF90DF90CF9008951F920F920FB60F9293
:102BA00011240BB60F922F933F934F935F936F9324
:102BB0007F938F939F93AF93BF93EF93FF9381E0A6
:102BC00094E00E941304FF91EF91BF91AF919F9108
:102BD0008F917F916F915F914F913F912F910F90C6
:102BE0000BBE0F900FBE0F901F9018951F920F9263
:102BF0000FB60F9211240BB60F922F938F939F93C2
:102C0000EF93FF93E0911104F09112048081E09121
:102C10001704F091180482FD1DC0908180911A0460
:102C20008F5F8F7320911B04821741F0E0911A048B
:102C3000F0E0EF5FFB4F958F80931A04FF91EF91C7
:102C40009F918F912F910F900BBE0F900FBE0F9001
:102C50001F9018958081F2CF1F920F920FB60F929E
:102C600011242F933F938F939F93AF93BF938091A2
:102C7000F9039091FA03A091FB03B091FC0330910A
:102C8000F80323E0230F2D3758F50196A11DB11D40
:102C90002093F8038093F9039093FA03A093FB0326
:102CA000B093FC038091FD039091FE03A091FF037C
:102CB000B09100040196A11DB11D8093FD03909376
:102CC000FE03A093FF03B0930004BF91AF919F91C7
:102CD0008F913F912F910F900FBE0F901F901895DD
:102CE00026E8230F0296A11DB11DD2CF1F920F928D
:102CF0000FB60F9211240BB60F922F933F934F9361
:102D00005F936F937F938F939F93AF93BF93EF9353
:102D1000FF9348E251E064E271E090E080E00E94BD
:102D20006F0AFF91EF91BF91AF919F918F917F912A
:102D30006F915F914F913F912F910F900BBE0F902C
:102D40000FBE0F901F9018951F920F920FB60F9203
:102D500011240BB60F922F933F934F935F936F9372
:102D60007F938F939F93AF93BF93EF93FF9348EA23
:102D700050E064EA70E083E090E00E946F0AFF9107
:102D8000EF91BF91AF919F918F917F916F915F91E3
:102D90004F913F912F910F900BBE0F900FBE0F9050
:102DA0001F9018951F920F920FB60F9211240BB619
:102DB0000F922F933F934F935F936F937F938F93D4
:102DC0009F93AF93BF93EF93FF9348E950E064E97B
:102DD00070E082E090E00E946F0AFF91EF91BF9156
:102DE000AF919F918F917F916F915F914F913F91A3
:102DF0002F910F900BBE0F900FBE0F901F90189544
:102E00001F920F920FB60F9211240BB60F922F93B1
:102E10003F934F935F936F937F938F939F93AF9362
:102E2000BF93EF93FF9348E850E064E870E081E0DF
:102E300090E00E946F0AFF91EF91BF91AF919F9137
:102E40008F917F916F915F914F913F912F910F9053
:102E50000BBE0F900FBE0F901F901895CF9310923E
:102E600004041092030488EE93E0A0E0B0E08093A5
:102E7000050490930604A0930704B09308048AE421
:102E800092E090930204809301048DEC90E0909383
:102E90000E0480930D048CEC90E0909310048093CA
:102EA0000F0488EC90E0909312048093110489EC55
:102EB00090E090931404809313048AEC90E0909334
:102EC0001604809315048EEC90E090931804809380
:102ED000170410921A0410921B0410921C041092F2
:102EE0001D0482E792E09093280A8093270A88E0E5
:102EF00080932A0A1092330A1092340A1092350AEB
:102F00001092360A1092370A1092380A1092390A33
:102F100010923A0A10923B0A10923C0A10923D0A13
:102F200010923E0A80E090E0A0E8BFE380933F0A61
:102F30009093400AA093410AB093420A1092430A28
:102F40001092440A1092450A1092460A8093470A4A
:102F50009093480AA093490AB0934A0A10924B0AE8
:102F600010924C0A10924D0A10924E0A21E030E065
:102F70003093540A2093530ACFEFC093560A10920D
:102F80004F0A1092500A1092510A1092520A2AE0E7
:102F900020932B0A2CE020932C0A2BE020932D0A5F
:102FA0002DE020932E0A1092550A10925B0A10927F
:102FB0005C0A10925D0A10925E0A10925F0A1092EB
:102FC000600A1092610A1092620A1092630A1092CB
:102FD000640A1092650A1092660A8093670A9093B9
:102FE000680AA093690AB0936A0A1092290A10929B
:102FF0002F0A1092300A1092310A1092320A87E298
:103000009AE00E94BC0660E070E080E89FE30E94C6
:10301000A30E80912E05803308F01BC191E0980F1C
:1030200090932E058093240A90E0FC01EE0FFF1F81
:10303000E80FF91FE256FB4F88EB9BE092838183F8
:1030400080912E05803308F007C191E0980F90938E
:103050002E058093210A90E0FC01EE0FFF1FE80F80
:10306000F91FE256FB4F88EB9BE09283818388E651
:1030700092E09093700580936F0581E094E09093C7
:1030800072058093710580E092ECA1E0B0E080933E
:10309000730590937405A0937505B093760510920F
:1030A000F5098CE592E09093040A8093030A10924C
:1030B000190A10921A0A10921B0A10921C0A1092F6
:1030C000200A10921F0AE7E8F9E01192119289E0B4
:1030D000E93BF807D1F7E9EBF9E01192119289E0A9
:1030E000EB3EF807D1F7E7E8F5E0119287E0E73823
:1030F000F807D9F7E7E8F7E0119289E0E738F80731
:10310000D9F71092050A1092060A1092070A109237
:10311000080A10920E0A10920D0A10920F0A1092CD
:10312000100A1092110A1092120A1092180A1092A4
:10313000170A10928305109284051092850510924B
:1031400086054CE852E05093600540935F0528E9FE
:1031500032E0309366052093650510926705109262
:1031600068051092690510926A058CED99E09093BC
:103170006C0580936B0581E090E090936E058093E1
:103180006D0567EC73E0709364056093630550937D
:10319000500540934F0530935605209355051092E6
:1031A0005705109258051092590510925A0562EE73
:1031B00079E070935C0560935B0590935E05809366
:1031C0005D0563ED73E07093540560935305509370
:1031D000400540933F0530934605209345051092E6
:1031E0004705109248051092490510924A0564E47B
:1031F0007CE070934C0560934B0590934E05809353
:103200004D056FED73E07093440560934305509353
:10321000300540932F0530933605209335051092E5
:103220003705109238051092390510923A0520E3BF
:103230003FE030933C0520933B0590933E058093FF
:103240003D0589EE93E09093340580933305CF914B
:103250000895C093240AF4CE8FEF8093210A07CFFC
:10326000789484B5826084BD84B5816084BD85B561
:10327000826085BD85B5816085BD80916E0081606D
:1032800080936E0010928100809181008260809313
:103290008100809181008160809381008091800015
:1032A0008160809380008091B10084608093B10040
:1032B0008091B00081608093B00080919100826025
:1032C0008093910080919100816080939100809122
:1032D00090008160809390008091A1008260809333
:1032E000A1008091A10081608093A1008091A00045
:1032F00081608093A00080912101826080932101F0
:103300008091210181608093210180912001816061
:103310008093200180917A00846080937A0080916C
:103320007A00826080937A0080917A008160809335
:103330007A0080917A00806880937A001092C100B0
:1033400061E089E00E945A0661E088E00E945A0626
:103350006CE270E084E29AE00E94E8096DE270E0BD
:1033600081E29AE00E94E809C0917105D09172054E
:10337000C0907305D0907405E0907505F0907605C7
:1033800060E079E08DE390E0A70196017DD12150C6
:103390003109410951095695479537952795E8898F
:1033A000F98982E08083C11481EED806E104F1043A
:1033B00021F0211580E1380790F0E889F989108221
:1033C00060E874E88EE190E0A70196015DD121509C
:1033D0003109410951095695479537952795EC854F
:1033E000FD853083EE85FF852083188EEC89FD896D
:1033F00086E08083EA89FB89808180618083EA8915
:10340000FB89808188608083EA89FB89808180686C
:103410008083EA89FB8980818F7D80831092EC090B
:103420001092EB091092EE091092ED091092F20938
:103430001092F1091092F0091092EF098FE595E0D2
:103440000E9483038FE495E00E9483038FE395E05D
:103450000E9483038FE295E00E94830362E087E08D
:103460000E945A0662E086E00E945A0620E030E0A0
:103470004AE754E460913F0A7091400A8091410A02
:103480009091420A97D1882309F449C080E090E0E6
:10349000AAE7B4E480933F0A9093400AA093410ABC
:1034A000B093420A8093670A9093680AA093690ACE
:1034B000B0936A0A80915B0A90915C0AA0915D0AC0
:1034C000B0915E0A181619061A061B0644F560919B
:1034D0003B0A70913C0A80913D0A90913E0A9B0103
:1034E000AC01BBD26B017C016091430A7091440A2C
:1034F0008091450A9091460A9B01AC01F7D09B014F
:10350000AC01C701B6015AD1C1D160935B0A709377
:103510005C0A80935D0A90935E0A0E94350160E028
:1035200070E080E291E40E94A30E20E030E040E2EF
:1035300051E460913B0A70913C0A80913D0A909160
:103540003E0A38D18823D1F180903F0A9090400AFA
:10355000A090410AB090420A75016401F7FAF09414
:10356000F7F8F09420E030E040E251ECC501B401FE
:1035700021D187FD0BC020E030E040E251E4C501DD
:10358000B40118D187FF30C07501640120E030E03C
:10359000A901C701B6010ED181112CC010924B0AAE
:1035A00010924C0A10924D0A10924E0AC0923B0A99
:1035B000D0923C0AE0923D0AF0923E0A8FE695E0F6
:1035C0000E94DA100E948B066B017C010E948B0620
:1035D0006C197D098E099F09683E7340810591052C
:1035E000A8F30E94A004EACFC12CD12C80E2E82EDF
:1035F00081E4F82EA701960160E074E284E799E483
:10360000DDD09F7748D160934B0A70934C0A80932A
:103610004D0A90934E0AC1E020E030E0A901C701B5
:10362000B60117D218160CF0C0E0C093290ABECF1D
:10363000052E97FB16F400940FD057FD05D024D02B
:1036400007FC02D046F408C050954095309521956E
:103650003F4F4F4F5F4F08959095809570956195BE
:103660007F4F8F4F9F4F089531D0A59F900DB49FEE
:10367000900DA49F800D911D11240895B7FFF4CFE4
:10368000F3DF821B930B0895A1E21A2EAA1BBB1B2A
:10369000FD010DC0AA1FBB1FEE1FFF1FA217B3071E
:1036A000E407F50720F0A21BB30BE40BF50B661F34
:1036B000771F881F991F1A9469F7609570958095F8
:1036C00090959B01AC01BD01CF010895A29FB0016F
:1036D000B39FC001A39F700D811D1124911DB29F46
:1036E000700D811D1124911D08955058BB27AA27E4
:1036F0000ED075C166D130F06BD120F031F49F3F10
:1037000011F41EF45BC10EF4E095E7FB51C1E92F03
:1037100077D180F3BA17620773078407950718F00B
:1037200071F49EF58FC10EF4E0950B2EBA2FA02DEB
:103730000B01B90190010C01CA01A0011124FF275E
:10374000591B99F0593F50F4503E68F11A16F04059
:10375000A22F232F342F4427585FF3CF4695379558
:103760002795A795F0405395C9F77EF41F16BA0B1D
:10377000620B730B840BBAF09150A1F0FF0FBB1FCB
:10378000661F771F881FC2F70EC0BA0F621F731F14
:10379000841F48F4879577956795B795F7959E3F71
:1037A00008F0B3CF9395880F08F09927EE0F9795FF
:1037B00087950895D9D008F481E008950CD00FC101
:1037C00007D140F0FED030F021F45F3F19F0F0C097
:1037D000511139C1F3C014D198F39923C9F355237A
:1037E000B1F3951B550BBB27AA27621773078407F4
:1037F00038F09F5F5F4F220F331F441FAA1FA9F3AA
:1038000033D00E2E3AF0E0E830D091505040E6959B
:10381000001CCAF729D0FE2F27D0660F771F881FFC
:10382000BB1F261737074807AB07B0E809F0BB0BEB
:10383000802DBF01FF2793585F4F2AF09E3F51050F
:1038400068F0B6C000C15F3FECF3983EDCF38695AC
:1038500077956795B795F7959F5FC9F7880F911D85
:103860009695879597F90895E1E0660F771F881F71
:10387000BB1F621773078407BA0720F0621B730B24
:10388000840BBA0BEE1F88F7E095089504D0689476
:10389000B111D9C00895BCD088F09F5790F0B92FCE
:1038A0009927B751A0F0D1F0660F771F881F991F95
:1038B0001AF0BA95C9F712C0B13081F0C3D0B1E0A7
:1038C0000895C0C0672F782F8827B85F39F0B93FB7
:1038D000CCF3869577956795B395D9F73EF4909597
:1038E0008095709561957F4F8F4F9F4F0895E89415
:1038F00009C097FB3EF490958095709561957F4F38
:103900008F4F9F4F9923A9F0F92F96E9BB279395E5
:10391000F695879577956795B795F111F8CFFAF4F5
:10392000BB0F11F460FF1BC06F5F7F4F8F4F9F4F26
:1039300016C0882311F096E911C0772321F09EE884
:10394000872F762F05C0662371F096E8862F70E0EA
:1039500060E02AF09A95660F771F881FDAF7880FC4
:103960009695879597F90895990F0008550FAA0B1A
:10397000E0E8FEEF16161706E807F907C0F0121682
:103980001306E407F50798F0621B730B840B950B85
:1039900039F40A2661F0232B242B252B21F40895DA
:1039A0000A2609F4A140A6958FEF811D811D089577
:1039B00097F99F6780E870E060E008959FEF80ECE2
:1039C000089500240A941616170618060906089585
:1039D00000240A9412161306140605060895092EEB
:1039E0000394000C11F4882352F0BB0F40F4BF2B5A
:1039F00011F460FF04C06F5F7F4F8F4F9F4F08959A
:103A000057FD9058440F551F59F05F3F71F047958F
:103A1000880F97FB991F61F09F3F79F08795089574
:103A2000121613061406551FF2CF4695F1DF08C093
:103A3000161617061806991FF1CF869571056105B0
:103A400008940895E894BB2766277727CB0197F958
:103A500008958ADF08F48FEF08950BD0C0CFB1DF4F
:103A600028F0B6DF18F0952309F0A2CFA7CF1124D4
:103A7000EACFC6DFA0F3959FD1F3950F50E0551F15
:103A8000629FF001729FBB27F00DB11D639FAA27B3
:103A9000F00DB11DAA1F649F6627B00DA11D661F02
:103AA000829F2227B00DA11D621F739FB00DA11D23
:103AB000621F839FA00D611D221F749F3327A00DDD
:103AC000611D231F849F600D211D822F762F6A2F79
:103AD00011249F5750408AF0E1F088234AF0EE0FFE
:103AE000FF1FBB1F661F771F881F91505040A9F70B
:103AF0009E3F510570F05CCFA6CF5F3FECF3983E40
:103B0000DCF3869577956795B795F795E7959F5F71
:103B1000C1F7FE2B880F911D9695879597F908950B
:103B200011F40EF44BCF3EC073DFD0F39923D9F3D9
:103B3000CEF39F57550B87FF43D00024A0E640EA01
:103B4000900180585695979528F4805C660F771FF2
:103B5000881F20F026173707480730F4621B730BC5
:103B6000840B202931294A2BA695179407942025E8
:103B700031254A2758F7660F771F881F20F0261730
:103B80003707480730F4620B730B840B200D311D8F
:103B9000411DA09581F7B901842F9158880F969502
:103BA000879508959F3F31F0915020F48795779540
:103BB0006795B795880F911D9695879597F9089504
:103BC00091505040660F771F881FD2F70895DB0190
:103BD0008F939F9349DDBF91AF91A29F800D911D5F
:103BE000A39F900DB29F900D11240895991B79E029
:103BF00004C0991F961708F0961B881F7A95C9F77D
:103C00008095089597FB072E16F4009406D077FD53
:103C100008D013D007FC05D03EF4909581959F4FB6
:103C20000895709561957F4F0895EE0FFF1F881FCF
:103C30008BBF0790F691E02D1994AA1BBB1B51E195
:103C400007C0AA1FBB1FA617B70710F0A61BB70B0C
:103C5000881F991F5A95A9F780959095BC01CD01B1
:103C600008954F925F926F927F928F929F92AF9240
:103C7000BF92CF92DF92EF92FF920F931F93CF9359
:103C8000DF938C01009791F4CB01DF91CF911F91CD
:103C90000F91FF90EF90DF90CF90BF90AF909F90EB
:103CA0008F907F906F905F904F90C0C0FC01E60FA7
:103CB000F71F9C0122503109E217F30708F4AAC04C
:103CC000D901CD91DC911197C617D70718F1C530EE
:103CD000D10570F0CE0104978617970748F0C61BF0
:103CE000D70B2297C193D1936D937C93CF013AD197
:103CF000C801DF91CF911F910F91FF90EF90DF905E
:103D0000CF90BF90AF909F908F907F906F905F907B
:103D10004F9008955B01AC1ABD0A4C018C0E9D1E9C
:103D2000A0916D0AB0916E0A512C412CF12CE12C1E
:103D3000109731F580916B0A90916C0A881599055E
:103D400009F05CC04616570608F058C08091000282
:103D500090910102009741F48DB79EB74091040203
:103D600050910502841B950BE817F90708F052C023
:103D7000F0936C0AE0936B0AF90171836083B8CF0A
:103D80008D919C91119712966C90129713967C903E
:103D90001397A815B90559F56C0142E0C40ED11C62
:103DA000CA14DB0420F1AC014A195B09DA0112964E
:103DB000159780F06282738251834083D9016D939D
:103DC0007C93E114F10471F0D7011396FC93EE9308
:103DD00012978ECF22968C0F9D1FF90191838083BD
:103DE000F301EFCFF0936E0AE0936D0A81CF48168E
:103DF000590608F42C017D01D3019ACFCB0116D0CE
:103E00007C01009739F0AE01B80107D0C801AAD0F3
:103E100087016ECF10E000E06BCFFB01DC0102C038
:103E200001900D9241505040D8F708950F931F9381
:103E3000CF93DF938230910510F482E090E0E0911F
:103E40006D0AF0916E0A30E020E0B0E0A0E030971B
:103E500099F42115310509F44AC0281B390B243087
:103E60003105D8F58A819B816115710589F1FB01C6
:103E700093838283FE0111C04081518102811381AD
:103E800048175907E0F04817590799F4109761F05F
:103E900012960C93129713961C933296CF01DF91D2
:103EA000CF911F910F91089500936D0A10936E0AA0
:103EB000F4CF2115310551F04217530738F0A9010D
:103EC000DB019A01BD01DF01F801C1CFEF01F9CF9C
:103ED00090936E0A80936D0ACDCFFE01E20FF31F1F
:103EE000819391932250310939832883D7CF209130
:103EF0006B0A30916C0A232B41F42091020230911D
:103F0000030230936C0A20936B0A209100023091D7
:103F100001022115310541F42DB73EB7409104024D
:103F200050910502241B350BE0916B0AF0916C0A4D
:103F3000E217F307A0F42E1B3F0B2817390778F080
:103F4000AC014E5F5F4F2417350748F04E0F5F1FDF
:103F500050936C0A40936B0A819391939FCFF0E04A
:103F6000E0E09CCFCF93DF930097E9F0FC0132971C
:103F700013821282A0916D0AB0916E0AED0130E0B9
:103F800020E01097A1F420813181820F931F2091AE
:103F90006B0A30916C0A2817390709F061C0F09359
:103FA0006C0AE0936B0ADF91CF910895EA01CE1776
:103FB000DF07E8F54A815B819E0141155105B1F7A4
:103FC000E901FB83EA8349915991C40FD51FEC178E
:103FD000FD0761F4808191810296840F951FE901AC
:103FE00099838883828193819B838A83F0E0E0E0D8
:103FF00012968D919C9113970097B9F52D913C9154
:104000001197CD010296820F931F20916B0A309178
:104010006C0A2817390739F6309751F510926E0A55
:1040200010926D0AB0936C0AA0936B0ABCCFD38335
:10403000C28340815181840F951FC817D90761F44D
:104040004E5F5F4F88819981480F591F518340838C
:104050008A819B81938382832115310509F0B0CF3A
:10406000F0936E0AE0936D0A9ECFFD01DC01C0CF94
:0A40700013821282D7CFF894FFCF1D
:10407A0000006F0A8000726F7373657269616C5F0A
:10408A006D7367732F5265717565737450617261D0
:10409A006D00000000004515450D420D3F0D000062
:1040AA0000007F0E390E360E330E00000000151583
:1040BA00EA0CE70CE40C000000003504A003CD0371
:1040CA008104FE03DC03F003000000003214580FE1
:1040DA00E10CDE0C00000000360BDA10270B0000A2
:1040EA000000EA06BC064D088A0837080508E407F6
:1040FA00B0078F073907060700000000B70C320B1C
:10410A002F0B2C0B00000000CA0CAA0C2F0B2C0B37
:10411A00646135393039666265333738616561669D
:10412A003835653534376538333063633162623721
:10413A00007374645F6D7367732F496E7433320052
:10414A004D6573736167652066726F6D206465766D
:10415A006963652064726F707065643A206D657377
:10416A0073616765206C6172676572207468616E3D
:10417A00206275666665722E003966306539386266
:10418A0064613635393831393836646466353361B5
:10419A0066613761343065343900313161626437C0
:1041AA003331633235393333323631636436313839
:1041BA003362643132643632393500726F73736533
:1041CA007269616C5F6D7367732F4C6F6700306142
:1041DA006435316638386663343438393266386360
:1041EA00313036383430373736343630303500727D
:1041FA006F7373657269616C5F6D7367732F546F48
:10420A00706963496E666F006364373136366337A7
:10421A0034633535326333313166626363326665DE
:10422A003561376263323839007374645F6D73675E
:10423A00732F54696D65002F736572766F6D5F63B6
:10424A006D64002F736572766F625F636D64002F11
:10425A00736861675F636D64002F706F73745F6367
:04426A006D6400007F
:00000001FF
