:1000000072C00000A1C000009FC000009DC00000A1
:100010009BC0000099C0000097C0000095C0000080
:1000200093C0000091C000008FC000008DC0000090
:100030008BC0000089C0000087C0000085C00000A0
:1000400083C0000081C000007FC000007DC00000B0
:100050007BC0000079C0000077C000000C94220C27
:1000600073C0000071C000006FC000006DC00000D0
:100070006BC0000069C0000067C0000065C00000E0
:1000800063C0000061C000005FC000005DC00000F0
:100090000C94EC0B0C94C20B57C0000055C0000030
:1000A00053C0000051C000004FC000004DC0000010
:1000B0004BC0000049C0000047C0000045C0000020
:1000C00043C0000041C000003FC000003DC0000030
:1000D0003BC0000039C0000037C0000035C0000040
:1000E00033C000006C0C11241FBECFEFD1E2DEBF85
:1000F000CDBF00E00CBF13E0A0E0B2E0E6EFF1E21C
:1001000000E00BBF02C007900D92A83BB107D9F7E2
:1001100029E0A8EBB3E001C01D92A232B207E1F7DB
:1001200010E0C3E7D0E000E006C021970109802F6E
:10013000FE010E94D80EC237D10780E00807A9F758
:100140000E94360D0C94F9105BCFAF92BF92CF9204
:10015000DF92EF92FF920F931F93CF93DF936C0187
:100160007B018B01040F151FEB015E01AE18BF0868
:10017000C017D10759F06991D601ED91FC9101901A
:10018000F081E02DC6011995892B79F7C501DF9122
:10019000CF911F910F91FF90EF90DF90CF90BF9084
:1001A000AF900895FC01538D448D252F30E0842FAE
:1001B00090E0821B930B541710F0CF96089501978F
:1001C0000895FC01918D828D981761F0A28DAE0F7C
:1001D000BF2FB11D5D968C91928D9F5F9F73928F03
:1001E00090E008958FEF9FEF0895FC01918D828D2F
:1001F000981731F0828DE80FF11D858D90E00895FC
:100200008FEF9FEF0895FC01918D228D892F90E053
:10021000805C9F4F821B91098F739927089581EC11
:1002200093E0F1DF21E0892B09F420E0822F08958B
:10023000FC01A48DA80FB92FB11DA35ABF4F2C915B
:10024000848D90E001968F739927848FA689B78952
:100250002C93A089B1898C91837080648C93938D49
:10026000848D981306C00288F389E02D80818F7DEC
:1002700080830895EF92FF920F931F93CF93DF93A4
:10028000EC0181E0888F9B8D8C8D98131AC0E889D2
:10029000F989808185FF15C09FB7F894EE89FF89A1
:1002A0006083E889F98980818370806480839FBF3F
:1002B00081E090E0DF91CF911F910F91FF90EF903F
:1002C0000895F62E0B8D10E00F5F1F4F0F7311274F
:1002D000E02E8C8D8E110BC00FB607FCFACFE8898B
:1002E000F989808185FFF5CFCE01A2DFF2CFEB8DBA
:1002F000EC0FFD2FF11DE35AFF4FF0829FB7F894EA
:100300000B8FEA89FB8980818062D0CFCF93DF9306
:10031000EC01888D8823B1F0AA89BB89E889F98925
:100320008C9185FD03C0808186FD0CC00FB607FC53
:10033000F7CF8C9185FFF2CF808185FFEDCFCE0185
:1003400077DFEACFDF91CF91089580E090E0892BAD
:1003500049F080E090E0892B29F00E940000811193
:100360000E94000080E090E0892B21F058DF81118D
:100370000E94000080E090E0892B49F080E090E04E
:10038000892B29F00E94000081110E94000080E06A
:1003900090E0892B49F080E090E0892B29F00E94C1
:1003A000000081110C94000008953FB7F8948091EB
:1003B000BD039091BE03A091BF03B091C00326B5C9
:1003C000A89B05C02F3F19F00196A11DB11D3FBF8D
:1003D000BA2FA92F982F8827BC01CD01620F711D5C
:1003E000811D911D42E0660F771F881F991F4A9556
:1003F000D1F708952FB7F8946091B9037091BA03BB
:100400008091BB039091BC032FBF08958A579B4FE7
:10041000FC0180810895AF92BF92CF92DF92EF925C
:10042000FF920F931F93CF93DF9300D01F921F92E1
:10043000CDB7DEB7643671054CF0FC01EA57FB4FCF
:100440002081F12CE12C222309F476C0DA017B0112
:100450008C01BC01615E7D4FED91FC910190F081BA
:10046000E02DCA011995680128EEC21A2DEFD20AB3
:100470002FEFD6012C93F801E75EFD4F2EEF20837E
:1004800031968083319690833196292F280F2095BD
:1004900020833196E0821696FC9245E050E030E0F1
:1004A00020E0DC011696A417B50734F06191260F01
:1004B000311D4F5F5F4FF7CF7C01B8E0EB0EF11CB1
:1004C000800F911FFC01E15EFD4F20952083E1E04C
:1004D000EE16E2E0FE06B4F45601C5018C199D0942
:1004E0008E159F054CF5D80112968D919C91F501C2
:1004F00061915F01DC01ED91FC910190F081E02DB3
:100500001995EBCF8BE492E09A83898383E08B8308
:1005100087E892E09D838C83D801ED91FC91019056
:10052000F081E02DAE014F5F5F4F67E070E0C801E2
:100530001995EE24EA94FE2CC7010F900F900F90AE
:100540000F900F90DF91CF911F910F91FF90EF903F
:10055000DF90CF90BF90AF9008950F931F93CF93EC
:10056000DF9300D000D000D01F92CDB7DEB78C0152
:100570008FE392E09A8389831B821C821D821E82F4
:100580001F82188619861A86D801ED91FC91019078
:10059000F081E02DAE014F5F5F4F6AE070E0C8016F
:1005A000199528DFF80160877187828793872A96DB
:1005B0000FB6F894DEBF0FBECDBFDF91CF911F9174
:1005C0000F910895CF92DF92EF92FF92DC011D927E
:1005D0001D921D921C921397FB0130E020E0419187
:1005E00050E0022E02C0440F551F0A94E2F7052E78
:1005F000000C660B770BCD90DD90ED90FC9013977F
:100600004C295D296E297F294D935D936D937C93D1
:100610001397285F3F4F2032310509F7FF90EF9085
:10062000DF90CF900895FC014083518312821382A2
:10063000089580EC92E0089581EE92E008954F9243
:100640005F926F927F928F929F92AF92BF92EF9242
:10065000FF920F931F93CF93DF9300D01F92CDB7DC
:10066000DEB77C018B01CE010196ACDF89819A81D6
:10067000AB81BC814C015D0124E0820E911CA11C68
:10068000B11CA8014D5F5F4FFA0124E030E0290161
:10069000712C612C481459046A047B0428F461818C
:1006A00061932F5F3F4FF3CFF801E80FF91F1382DB
:1006B000F7015383428304960F900F900F900F9091
:1006C000DF91CF911F910F91FF90EF90BF90AF906E
:1006D0009F908F907F906F905F904F90089581EFE3
:1006E00092E0089583E192E0089582E193E0089515
:1006F00083E393E008954F925F926F927F928F927F
:100700009F92AF92BF92EF92FF920F931F93CF935E
:10071000DF9300D01F92CDB7DEB77C018B01FB01C8
:100720008191BF01F7018283CE0101964BDF898160
:100730009A81AB81BC814C015D01F5E08F0E911C6B
:10074000A11CB11CA8014C5F5F4FFA0125E030E00D
:100750002901712C612C481459046A047B0428F483
:10076000618161932F5F3F4FF3CFF801E80FF91FCD
:100770001482F7015483438305960F900F900F90D6
:100780000F90DF91CF911F910F91FF90EF90BF904D
:10079000AF909F908F907F906F905F904F90089553
:1007A00086E493E0089587E693E008954F925F9280
:1007B0006F927F928F929F92AF92BF92CF92DF9271
:1007C000EF92FF920F931F93CF93DF93CDB7DEB7D6
:1007D0002C970FB6F894DEBF0FBECDBF7C018B0106
:1007E000DB018C9190E0F7019383828311962C9129
:1007F000922B938382836E5F7F4FCE010196E2DE60
:1008000089809A80AB80BC8024013501F6E04F0ED0
:10081000511C611C711C98012B5F3F4FF90186E050
:1008200090E0AC0170E060E0441555056605770581
:1008300020F4418141930196F4CFB4016A5F7F4F68
:10084000F801E80DF91D1582D70115963C932E93FA
:100850001497600F711FCE010596B4DEBAE08B0EBF
:10086000911C4D805E806F807884C401092C000C3F
:10087000AA0BBB0B5C016D01A40CB51CC61CD71CDC
:10088000F801E80DF91DAF01401B510B70E060E06D
:100890004A155B056C057D0538F42191AF01425086
:1008A0005109DA012C93EFCF480C591CB801640DA3
:1008B000751DFB0131971082C4010197800F911FB4
:1008C000F70197838683CE0109967CDE92012C5F27
:1008D0003F4F89849A84AB84BC84A901032E000C09
:1008E000660B770B480D591D6A1D7B1DF801E20F41
:1008F000F31FCF01801B910BB0E0A0E08417950798
:10090000A607B70728F48191DF0112978C93F1CFE6
:10091000C901880D991DF801E80FF91FDF01119732
:100920001C9221503109020F131FD70119961C93F5
:100930000E9318972181428150E070E060E0BA0187
:1009400055274427522B2081422B2381722BF701FC
:10095000428753876487758704962C960FB6F89460
:10096000DEBF0FBECDBFDF91CF911F910F91FF90E2
:10097000EF90DF90CF90BF90AF909F908F907F903F
:100980006F905F904F90089580E893E0089581EA1A
:1009900093E00895FC01DB014C9150E070E060E0D1
:1009A000428353836483758311968C911197582BDE
:1009B000428353836483758312968C911297682BBC
:1009C000428353836483758313968C911397782B9A
:1009D000428353836483758314964C91149750E03B
:1009E00070E060E0468357836087718715968C912D
:1009F0001597582B468357836087718716968C917D
:100A00001697682B468357836087718717968C915A
:100A1000782B468357836087718788E090E008953C
:100A2000DC01FB0112968C911297808313968C91B6
:100A30001397818314968C911497828315968C91C9
:100A40001597838316968C911697848317968C91AD
:100A50001797858318968C911897868319968C9191
:100A6000878388E090E00895EF92FF920F931F93A1
:100A7000CF93DF937C018B01DC011296ED91FC9109
:100A8000EF0109900020E9F72197CE1BDF0BAE01A3
:100A900070E060E0C801C7DDF70162817381AE01DB
:100AA000C80104960E94CB0FCE010496DF91CF912E
:100AB0001F910F91FF90EF9008954F925F926F9268
:100AC0007F928F929F92AF92BF92CF92DF92EF92DE
:100AD000FF920F931F93CF93DF93EC017B018A81E9
:100AE000FB0180838B8181838C8182838D818383D1
:100AF0003496412C512C320104E010E09F012F5F0D
:100B00003F4FCF010296DF011396A8010C5F1F4FE4
:100B10008A809B80AC80BD80481459046A047B04A1
:100B2000C8F4AA85BB85A40FB51F14974C911196E4
:100B30002C91119712969C91129713968C91408349
:100B40002183928383838FEF481A580A680A780AB0
:100B50003496D4CF4C8540834D85F90140832E8552
:100B6000FC0120838F858C93F701E00FF11F412C4E
:100B7000512C3201AF019F012F5F3F4FCF010296F1
:100B8000DF0113960C5F1F4F8C849D84AE84BF845D
:100B9000481459046A047B04D8F4CF01841B950BD4
:100BA000AC89BD89A80FB91F3C9111962C91119762
:100BB00012969C91129713968C9130832183928385
:100BC00083838FEF481A580A680A780A3496D3CF7D
:100BD0004E8940834F89F9014083288DFC01208391
:100BE000898D8C93412C512C32018E899F89A88D3F
:100BF000B98D481659066A067B0678F55201AA0C8B
:100C0000BB1CEC8DFD8DEA0DFB1DA081B181FD01AA
:100C100001900020E9F731976F01CA1ADB0AA6019B
:100C200070E060E0C701800F911FFDDC0C5F1F4F7B
:100C30008C8D9D8DA80EB91EF50160817181A60174
:100C4000C701800F911F0E94CB0F0C0D1D1DFFEFE0
:100C50004F1A5F0A6F0A7F0AC8CFC801DF91CF9190
:100C60001F910F91FF90EF90DF90CF90BF90AF90CA
:100C70009F908F907F906F905F904F900895EF922C
:100C8000FF920F931F93CF93DF938C017B01DC01C5
:100C900012962C911297FB012193CF011396ED919F
:100CA000FC91EF0109900020E9F72197CE1BDF0BA3
:100CB000AE0170E060E0B7DCD80113966D917C91D5
:100CC000AE01C70105960E94CB0FCE010596DF91BC
:100CD000CF911F910F91FF90EF900895CF92DF92E7
:100CE000EF92FF920F931F93CF93DF936C01EB0171
:100CF000DC0112968C911297888313968C9113972E
:100D000089831496ED91FC91DF010D900020E9F7A5
:100D10008D01015011090E1B1F0BA80170E060E04E
:100D2000CE01029680DCF60164817581A801CE01B6
:100D300006960E94CB0FC8010696F601A681B781E0
:100D4000FD0101900020E9F731977F01EA1AFB0AC3
:100D5000A70170E060E08C0F9D1F65DC065F1F4FF0
:100D6000D60116966D917C91A701CE01800F911F3F
:100D70000E94CB0F0E0D1F1DF601A085B185FD0150
:100D800001900020E9F731977F01EA1AFB0AA701D9
:100D900070E060E0CE01800F911F45DC0C5F1F4FBB
:100DA000D60118966D917C91A701CE01800F911FFD
:100DB0000E94CB0FC701800F911FF601628543850A
:100DC00034852585C80FD91F688349833A832B83CF
:100DD0000496DF91CF911F910F91FF90EF90DF90DC
:100DE000CF9008952F923F924F925F926F927F9291
:100DF0008F929F92AF92BF92CF92DF92EF92FF922B
:100E00000F931F93CF93DF93CDB7DEB72E970FB617
:100E1000F894DEBF0FBECDBF8C016B01DB018D905E
:100E20009D90AD90BC90FC0182819381A481B5819D
:100E300088159905AA05BB0568F4B401660F771FEC
:100E4000660F771F82859385CAD7D8011B969C931E
:100E50008E931A97F80182829382A482B582C6018A
:100E600040E050E0BA01A4E0EA2EF12C98012A5F9C
:100E70003F4FDC011596EC91159716964C901697FE
:100E8000512C712C612C3201552444245E2A149675
:100E9000EC9114974E2A1796EC917E2AD7011701F0
:100EA000E4E02E0E311C71010496F80182809380DB
:100EB000A480B580481559056A057B05A8F44682CB
:100EC0005782608671861497A284B384AA0DBB1DD5
:100ED000E4E0BE2EF90101900D92BA94E1F74F5F64
:100EE0005F4F6F4F7F4FC5CF84859585A685B785AA
:100EF00084159505A605B70568F4B201660F771F3E
:100F0000660F771F848995896AD7D80155969C9377
:100F10008E935497F8014486558666867786C60177
:100F2000820D931D412C512C32011C019801205F30
:100F30003F4FDC0111966C91119712968C9012978D
:100F4000912CB12CA12C540199248824962A6C91BF
:100F5000862A13966C91B62AB4E0EB0EF11CF801C8
:100F60004485558566857785441655066606770659
:100F7000C0F4808A918AA28AB38ABC01621973097B
:100F8000A489B589A60FB71F64E0F90101900D92FD
:100F90006A95E1F7BFEF4B1A5B0A6B0A7B0A04966E
:100FA000C8CF86899789A08DB18D88159905AA0526
:100FB000BB0558F4B401660F771F848D958D0FD74C
:100FC000D8015D969C938E935C97F801868A978AE8
:100FD000A08EB18E412C512C32011801FAE12F0E56
:100FE000311CF80186899789A08DB18D4816590664
:100FF0006A067B0608F05BC0B6016E0D7F1DCE0150
:101000000196E0DA97012C5F3F4F3E872D8789805C
:101010009A80AB80BC80C901032E000CAA0BBB0BCD
:10102000AC01BD01480D591D6A1D7B1D49875A87BA
:101030006B877C87F901EC0DFD1D9F012C193D0983
:10104000B90190E080E029853A854B855C8562177F
:1010500073078407950728F42191DF0112972C93D9
:10106000ECCFED84FE84E80CF91CF601EE0DFF1DBB
:10107000319710828D859E8501978C0D9D1DD8011D
:101080005B969C938E935A97C201880F991F5C962A
:10109000ED91FC91E80FF91FD1018D919C91918305
:1010A0008083BFEF4B1A5B0A6B0A7B0A9ACFC7019A
:1010B0002E960FB6F894DEBF0FBECDBFDF91CF9155
:1010C0001F910F91FF90EF90DF90CF90BF90AF9066
:1010D0009F908F907F906F905F904F903F902F9058
:1010E00008952F923F924F925F926F927F928F92CC
:1010F0009F92AF92BF92CF92DF92EF92FF920F93A7
:101100001F93CF93DF93CDB7DEB7A6970FB6F894B2
:10111000DEBF0FBECDBF8C016DD94B015C019801C4
:1011200025573B4F3E8B2D8BF90180819181A28108
:10113000B38175016401C81AD90AEA0AFB0AD7010A
:10114000C601893F9A42A105B10510F0359710827A
:10115000180134E8231A3BEF330AD1018D919C9199
:10116000892B79F0F801E157FB4F80819181A281B1
:10117000B38188159905AA05BB0518F4F101118200
:10118000108298012C573B4F3A8B298BA80140586D
:101190005B4F5C8B4B8BC8014896988F8F8BD80127
:1011A000AA57BB4FBC8FAB8FF801EC56FB4FFE8F9D
:1011B000ED8F215F3F4F38A32F8F42505109588B3D
:1011C0004F8786599B4F9A8F898F1996BAA3A9A3E7
:1011D000A50194012C5E3F4F4F4F5F4F2BA33CA3C3
:1011E0004DA35EA3F80184899589A689B789892BC7
:1011F0008A2B8B2BB1F5D80112968D919C91DC0135
:10120000ED91FC910284F385E02D19959C0197FFE7
:101210003BC0F801EA57FB4F80818823F9F0780141
:10122000B9E7EB1ABBEFFB0AF70180819181A2813C
:10123000B381A5019401281B390B4A0B5B0BDA0122
:10124000C901853C9940A105B10540F0C80185D987
:10125000D7018D929D92AD92BC92139790E080E061
:10126000B0C1C8D8681979098A099B09F801C488EE
:10127000D588E688F788C616D706E806F90608F086
:10128000BACF8EEF9FEF9DC1A989BA898D919C91AC
:101290001197820F931F8D939C93F101408151818F
:1012A00047305105F9F4A98DBA8D8D919C91119714
:1012B000AC014F5F5F4F4D935C93800F911FFC011A
:1012C000208FAF85B8898D919C91119701978D934F
:1012D0009C93892B09F086CF88E090E0F1019183FF
:1012E000808380CF4115510519F52F3F310581F4D9
:1012F00081E090E091838083CBA0DCA0EDA0FEA0F4
:10130000A9A1BAA1CD92DD92ED92FC9213976ACF7A
:1013100071D8681979098A099B096938734181056F
:10132000910508F45FCFF801EA57FB4F1082A9CF6F
:101330004130510581F42E3F310519F482E090E0EF
:10134000CDCF11821082EB8DFC8D808181114ACF2F
:10135000C80103D947CF4230510591F4AF85B88910
:101360002D933C93E98DFA8D1182108283E090E0F9
:10137000D1018D939C93E989FA893183208332CFFF
:101380004330510571F4322F2227AF85B8898D91F2
:101390009C911197280F391F2D933C9384E090E086
:1013A0009DCF4430510571F460E071E0AED48F3FC1
:1013B000910529F485E090E09183808313CF118219
:1013C000108210CF4530510569F4AB89BC892D934B
:1013D0003C9386E090E091838083A989BA892D931C
:1013E0003C9300CF46305105A1F4322F2227EB89E0
:1013F000FC8980819181280F391F3183208387E008
:1014000090E0D1018D939C93EF85F8898081918143
:1014100060CF4830510509F0E5CE1182108260E0BE
:1014200071E073D48F3F910509F0DCCEAB89BC89A4
:10143000ED91FC91309709F0DDC0C8018ED883E3AF
:1014400092E09A8389831C821B828FEB92E09E83B9
:101450008D8398878F839A8789871B861C861D8634
:101460001E866801B8EECB1ABBEFDB0A7801E6EB0B
:10147000EE1AEBEFFE0A412C22E0522E612C712C69
:10148000D601ED91FC913097A9F1848195819C83DF
:101490008B83808191819E838D8382819381DC0106
:1014A000ED91FC910480F581E02D199598878F834B
:1014B000D601ED91FC9182819381DC01ED91FC914B
:1014C0000680F781E02D19959A8789874B865C867F
:1014D0006D867E86D601ED91FC9160857185D8017F
:1014E000ED91FC910190F081E02DAE014F5F5F4FD7
:1014F000C8011995B2E0CB0ED11CEC14FD0409F023
:10150000BFCF412C92E0592E612C712CF701A081A4
:10151000B1811097E1F112968D919C9113979C8364
:101520008B8314968D919C9115979E838D83ED915D
:10153000FC9111970480F581E02DCD0119959887D4
:101540008F83D7018D919C91DC01ED91FC910680F8
:10155000F781E02D19959A8789874B865C866D8681
:101560007E86D801ED91FC91C080D180F701808109
:101570009181DC01ED91FC910280F381E02D1995C0
:10158000AE014F5F5F4FBC01C801F6011995F2E053
:10159000EF0EF11CE214F30409F0B8CFF801EA579A
:1015A000FB4F81E08083319680829182A282B38258
:1015B000AD89BE898D929D92AD92BC9213978FEFAB
:1015C0009FEFA6960FB6F894DEBF0FBECDBFDF919A
:1015D000CF911F910F91FF90EF90DF90CF90BF9030
:1015E000AF909F908F907F906F905F904F903F90C3
:1015F0002F900895EA30F10509F09BC08FE392E047
:101600009A8389831B821C821D821E821F821886F8
:1016100019861A860E94FA01F801C084D184E284F6
:10162000F3849B01AC012C193D094E095F09690146
:101630007A016F89788DCE010196ACD9C701B601C8
:1016400028EE33E040E050E073D369017A019B015A
:10165000AC018B819C81AD81BE818C0D9D1DAE1D29
:10166000BF1D8B839C83AD83BE8360E472E48FE0F7
:1016700090E03CD3CF80D884E984FA84DC01CB01AC
:101680008C0D9D1DAE1DBF1D8F839887A987BA87BE
:101690000E94FA01CF80D884E984FA8436E3D31A11
:1016A00035E6E30A34ECF30A28EE33E040E050E09C
:1016B0003FD329013A019B01AC0160E472E48FE061
:1016C00090E014D3A7019601261B370B480B590B4A
:1016D000CA01B9012B813C814D815E8121503109C4
:1016E0004109510969017A01C418D508E608F708CB
:1016F0002601370120E03AEC4AE95BE319D3420EB8
:10170000531E641E751ED8011C964D925D926D92FB
:101710007C921F97F801608B718B828B938B0E9458
:10172000FA01AD89BE896D937D938D939C93139738
:1017300059CDE630F10551F46F89788D8D8D9E8DF0
:1017400051DB81E0EF8DF8A180834CCDEB30F105CA
:1017500021F4AB8DBC8D1C9245CDEF53FE4FEE0FA7
:10176000FF1FE00FF11F80819181009709F43ACDAE
:10177000DC01ED91FC910190F081E02D6F89788D75
:10178000199530CD1F920F920FB60F9211240BB600
:101790000F922F933F934F935F936F937F938F930A
:1017A0009F93AF93BF93EF93FF9381EC93E00E94DD
:1017B0001801FF91EF91BF91AF919F918F917F9110
:1017C0006F915F914F913F912F910F900BBE0F90B2
:1017D0000FBE0F901F9018951F920F920FB60F9289
:1017E00011240BB60F922F938F939F93EF93FF9338
:1017F000E091D103F091D2038081E091D703F09181
:10180000D80382FD1DC090818091DA038F5F8F73B2
:101810002091DB03821741F0E091DA03F0E0EF530F
:10182000FC4F958F8093DA03FF91EF919F918F91F9
:101830002F910F900BBE0F900FBE0F901F90189519
:101840008081F2CF1F920F920FB60F9211242F9327
:101850003F938F939F93AF93BF938091B9039091E0
:10186000BA03A091BB03B091BC033091B80323E04D
:10187000230F2D3758F50196A11DB11D2093B803F4
:101880008093B9039093BA03A093BB03B093BC03B6
:101890008091BD039091BE03A091BF03B091C0039E
:1018A0000196A11DB11D8093BD039093BE03A0932B
:1018B000BF03B093C003BF91AF919F918F913F91B0
:1018C0002F910F900FBE0F901F90189526E8230FB1
:1018D0000296A11DB11DD2CF1092C4031092C30372
:1018E00088EE93E0A0E0B0E08093C5039093C60338
:1018F000A093C703B093C80387E592E09093C20317
:101900008093C1038DEC90E09093CE038093CD0340
:101910008CEC90E09093D0038093CF0388EC90E020
:101920009093D2038093D10389EC90E09093D403F9
:101930008093D3038AEC90E09093D6038093D503F1
:101940008EEC90E09093D8038093D7031092DA0343
:101950001092DB031092DC031092DD0385E792E026
:1019600090936D0480936C0481EC93E090936F04EA
:1019700080936E0480E092ECA1E0B0E0809370046C
:1019800090937104A0937204B09373041092F208C0
:1019900089E692E09093010980930009109216095C
:1019A00010921709109218091092190910921D0926
:1019B00010921C09E4E8F8E01192119288E0E63BED
:1019C000F807D1F7E6EBF8E01192119288E0E83ED3
:1019D000F807D1F7E4E8F4E084E896E011928E1776
:1019E0009F07E1F7E4E8F6E0119288E0E438F807B1
:1019F000D9F710920209109203091092040910926B
:101A0000050910920B0910920A0910920C09109204
:101A10000D0910920E0910920F09109215091092DB
:101A20001409109280041092810410928204109282
:101A300083048FE792E090936904809368048FEBAE
:101A400092E090936B0480936A048FEA93E0909302
:101A50005F0480935E0488E694E090936104809331
:101A6000600410926704109266040895789484B517
:101A7000826084BD84B5816084BD85B5826085BD8A
:101A800085B5816085BD80916E00816080936E0018
:101A9000109281008091810082608093810080910A
:101AA00081008160809381008091800081608093BB
:101AB00080008091B10084608093B1008091B0007B
:101AC00081608093B000809191008260809391004A
:101AD000809191008160809391008091900081605D
:101AE000809390008091A10082608093A1008091FA
:101AF000A10081608093A1008091A000816080930B
:101B0000A0008091210182608093210180912101B8
:101B10008160809321018091200181608093200168
:101B200080917A00846080937A0080917A0082604C
:101B300080937A0080917A00816080937A0080910E
:101B40007A00806880937A001092C100C0916E0480
:101B5000D0916F04C0907004D0907104E090720432
:101B6000F090730460E079E08DE390E0A7019601C6
:101B7000DFD02150310941095109569547953795D4
:101B80002795E889F98982E08083C11481EED8061F
:101B9000E104F10421F02115A0E13A0790F0E88971
:101BA000F989108260E874E88EE190E0A70196015F
:101BB000BFD02150310941095109569547953795B4
:101BC0002795EC85FD853083EE85FF852083188E73
:101BD000EC89FD8986E08083EA89FB8980818061C8
:101BE0008083EA89FB89808188608083EA89FB8918
:101BF000808180688083EA89FB8980818F7D8083F2
:101C00001092E9081092E8081092EB081092EA0886
:101C10001092EF081092EE081092ED081092EC0866
:101C2000E4E8F8E090E080E021913191232B09F085
:101C300057C0FC01EE0FFF1FEC57F74F2EE534E0C5
:101C40003183208383589F4F909363048093620471
:101C50008CE694E09093650480936404C0E0D2E045
:101C6000D0936B04C0936A048091640490916504DE
:101C70006091620470916304DC01ED91FC9101902C
:101C8000F081E02D48E654E019958CE694E029DADD
:101C90000E94D5014B015C0188EEC82E83E0D82E4E
:101CA000E12CF12C0E94D501681979098A099B0958
:101CB000683E734081059105A8F3B1E0CB1AD108C5
:101CC000E108F10828EE820E23E0921EA11CB11C4F
:101CD000C114D104E104F10429F70E94A501C0CF89
:101CE00001968931910509F09FCFB8CFDB018F9321
:101CF0009F9340D0BF91AF91A29F800D911DA39F54
:101D0000900DB29F900D1124089597FB072E16F4A5
:101D1000009406D077FD08D037D007FC05D03EF4FC
:101D2000909581959F4F0895709561957F4F089587
:101D3000A1E21A2EAA1BBB1BFD010DC0AA1FBB1FCF
:101D4000EE1FFF1FA217B307E407F50720F0A21B41
:101D5000B30BE40BF50B661F771F881F991F1A94AE
:101D600069F760957095809590959B01AC01BD01D8
:101D7000CF01089525D0A59F900DB49F900DA49FED
:101D8000800D911D11240895AA1BBB1B51E107C0B2
:101D9000AA1FBB1FA617B70710F0A61BB70B881FFB
:101DA000991F5A95A9F780959095BC01CD0108958A
:101DB000EE0FFF1F881F8BBF0790F691E02D19943F
:101DC000A29FB001B39FC001A39F700D811D11247C
:101DD000911DB29F700D811D1124911D08954F9288
:101DE0005F926F927F928F929F92AF92BF92CF92AB
:101DF000DF92EF92FF920F931F93CF93DF938C01AB
:101E0000009791F4CB01DF91CF911F910F91FF903B
:101E1000EF90DF90CF90BF90AF909F908F907F908A
:101E20006F905F904F90C0C0FC01E60FF71F9C01C0
:101E300022503109E217F30708F4AAC0D901CD9165
:101E4000DC911197C617D70718F1C530D10570F08E
:101E5000CE0104978617970748F0C61BD70B229729
:101E6000C193D1936D937C93CF013AD1C801DF9197
:101E7000CF911F910F91FF90EF90DF90CF90BF9087
:101E8000AF909F908F907F906F905F904F9008954C
:101E90005B01AC1ABD0A4C018C0E9D1EA09120095D
:101EA000B0912109512C412CF12CE12C109731F5E6
:101EB00080911E0990911F098815990509F05CC051
:101EC0004616570608F058C080910D0290910E02F8
:101ED000009741F48DB79EB74091110250911202C4
:101EE000841B950BE817F90708F052C0F0931F09FF
:101EF000E0931E09F90171836083B8CF8D919C91A5
:101F0000119712966C90129713967C901397A815C0
:101F1000B90559F56C0142E0C40ED11CCA14DB04AA
:101F200020F1AC014A195B09DA011296159780F08D
:101F30006282738251834083D9016D937C93E11453
:101F4000F10471F0D7011396FC93EE9312978ECFA4
:101F500022968C0F9D1FF90191838083F301EFCFAF
:101F6000F0932109E093200981CF4816590608F41F
:101F70002C017D01D3019ACFCB0116D07C010097B3
:101F800039F0AE01B80107D0C801AAD087016ECFE1
:101F900010E000E06BCFFB01DC0102C001900D926C
:101FA00041505040D8F708950F931F93CF93DF937C
:101FB0008230910510F482E090E0E0912009F091E8
:101FC000210930E020E0B0E0A0E0309799F421153D
:101FD000310509F44AC0281B390B24303105D8F5E6
:101FE0008A819B816115710589F1FB01938382834D
:101FF000FE0111C0408151810281138148175907A8
:10200000E0F04817590799F4109761F012960C9375
:10201000129713961C933296CF01DF91CF911F91A7
:102020000F9108950093200910932109F4CF2115F1
:10203000310551F04217530738F0A901DB019A012D
:10204000BD01DF01F801C1CFEF01F9CF9093210964
:1020500080932009CDCFFE01E20FF31F819391936E
:102060002250310939832883D7CF20911E0930911E
:102070001F09232B41F420910F023091100230935D
:102080001F0920931E0920910D0230910E02211587
:10209000310541F42DB73EB7409111025091120223
:1020A000241B350BE0911E09F0911F09E217F3077D
:1020B000A0F42E1B3F0B2817390778F0AC014E5FB8
:1020C0005F4F2417350748F04E0F5F1F50931F09CD
:1020D00040931E09819391939FCFF0E0E0E09CCF65
:1020E000CF93DF930097E9F0FC01329713821282BD
:1020F000A0912009B0912109ED0130E020E0109776
:10210000A1F420813181820F931F20911E0930910B
:102110001F092817390709F061C0F0931F09E093E0
:102120001E09DF91CF910895EA01CE17DF07E8F588
:102130004A815B819E0141155105B1F7E901FB839D
:10214000EA8349915991C40FD51FEC17FD0761F43B
:10215000808191810296840F951FE901998388837C
:10216000828193819B838A83F0E0E0E012968D91D7
:102170009C9113970097B9F52D913C911197CD0142
:102180000296820F931F20911E0930911F09281774
:10219000390739F6309751F510922109109220092C
:1021A000B0931F09A0931E09BCCFD383C283408183
:1021B0005181840F951FC817D90761F44E5F5F4F97
:1021C00088819981480F591F518340838A819B815F
:1021D000938382832115310509F0B0CFF093210953
:1021E000E09320099ECFFD01DC01C0CF1382128253
:0621F000D7CFF894FFCFE9
:1021F60068656C6C6F20776F726C6421000000223A
:10220600098000726F7373657269616C5F6D7367C5
:10221600732F52657175657374506172616D00003C
:102226000000006E06D603D303D0030000000010A2
:1022360005CA04C704C404000000003F067B0378F7
:10224600037503000000003A01A500D200860103D1
:1022560001E100F500000000005D05F20672036F63
:1022660003000000000B02710806020000000034A3
:10227600051F031C0319034D6573736167652066AB
:10228600726F6D206465766963652064726F707025
:1022960065643A206D657373616765206C6172676A
:1022A6006572207468616E206275666665722E00BE
:1022B6003939326365386131363837636563386377
:1022C6003862643838336563373363613431643177
:1022D600007374645F6D7367732F537472696E67EE
:1022E60000396630653938626461363539383139D6
:1022F6003836646466353361666137613430653417
:102306003900313161626437333163323539333301
:102316003236316364363138336264313264363290
:10232600393500726F7373657269616C5F6D7367BF
:10233600732F4C6F670030616435316638386663D9
:1023460034343839326638633130363834303737DA
:1023560036343630303500726F7373657269616C6E
:102366005F6D7367732F546F706963496E666F0094
:102376006364373136366337346335353263333128
:102386003166626363326665356137626332383956
:10239600007374645F6D7367732F54696D650063B2
:0823A6006861747465720000A7
:00000001FF
