:10000000E8C0000017C1000015C1000013C10000C6
:1000100011C100000FC100000DC100000BC10000A4
:1000200009C1000007C1000005C1000003C10000B4
:1000300001C10000FFC00000FDC00000FBC00000C7
:10004000F9C00000F7C00000F5C00000F3C00000D8
:10005000F1C00000EFC00000EDC000000C94690F7B
:10006000E9C000000C943F0F0C94150FE3C0000092
:10007000E1C00000DFC00000DDC00000DBC0000008
:10008000D9C00000D7C00000D5C00000D3C0000018
:100090000C94EB0E0C94C10ECDC00000CBC0000040
:1000A000C9C00000C7C00000C5C00000C3C0000038
:1000B000C1C00000BFC00000BDC00000BBC0000048
:1000C000B9C00000B7C00000B5C00000B3C0000058
:1000D000B1C00000AFC000000C94970E0C946D0EE0
:1000E000A9C0000000002200250028002B002E00DF
:1000F0003100340002010000050108010B01050573
:100100000505070508080808020202020A0A08088D
:1001100004040404010101010101010103030303BB
:1001200003030303040707070C0C0C0C0C0C0C0C4A
:100130000202020206060606060606060B0B0B0B5B
:100140000B0B0B0B01021020200808102040102080
:10015000408002010201080402010102040810208B
:100160004080804020100804020180040201804089
:1001700020100804020108040201010204081020F2
:100180004080010204081020408000000A0B020990
:100190000C0D0E0807030401000000000000000021
:1001A000000000000000000000000000000000004F
:1001B000000000000000121110000000000000000C
:1001C000000000000000000000000000000000002F
:1001D000B30F11241FBECFEFD1E2DEBFCDBF00E0D1
:1001E0000CBF2AE0A8E0B4E001C01D92AE3AB2070D
:1001F000E1F714E0A0E0B2E0E4E4FAE200E00BBFD3
:1002000002C007900D92A830B107D9F710E0C9EEEF
:10021000D0E000E006C021970109802FFE010E9476
:10022000F312C83ED10780E00807A9F70E94FF102B
:100230000C942015E5CECF92DF92EF92FF92CF93F0
:10024000DF93EC016A017B01E889F98982E0808310
:10025000C11481EED806E104F104A1F060E079E078
:100260008DE390E0A70196010E94D112215031093F
:10027000410951095695479537952795211580E1F4
:10028000380798F0E889F989108260E874E88EE10F
:1002900090E0A70196010E94D11221503109410935
:1002A00051095695479537952795EC85FD853083FF
:1002B000EE85FF852083188EEC89FD8986E080839A
:1002C000EA89FB89808180618083EA89FB8980815A
:1002D00088608083EA89FB89808180688083EA89DD
:1002E000FB8980818F7D8083DF91CF91FF90EF909C
:1002F000DF90CF900895382FE2EBF1E08491ECE6A7
:10030000F1E02491E6E2F1E09491992309F435C0FB
:10031000882311F181508231F8F4E82FF0E088272A
:10032000EB56FE4F8F4F0C94F312C601CA01A70182
:10033000BE01C201AC01CD01D301D701DD01E10154
:10034000E501EB01EF01AC01F301F901FD01809141
:1003500080008F7780938000E92FF0E0EE0FFF1F81
:10036000EC51FF4FA591B4918FB7F894EC913111F6
:1003700048C020952E232C938FBF08958091800034
:100380008F7DE8CF80918000877FE4CF84B58F7721
:1003900084BDE2CF84B58F7DFBCF8091B0008F7795
:1003A0008093B000D9CF8091B0008F7DF9CF80913C
:1003B00090008F7780939000CFCF809190008F7DB9
:1003C000F9CF80919000877FF5CF8091A0008F7743
:1003D0008093A000C1CF8091A0008F7DF9CF809144
:1003E000A000877FF5CF809120018F778093200137
:1003F000B3CF809120018F7DF9CF80912001877F3D
:10040000F5CF2E2BB8CFAF92BF92CF92DF92EF9263
:10041000FF920F931F93CF93DF936C017B018B01AE
:10042000040F151FEB015E01AE18BF08C017D107FE
:1004300059F06991D601ED91FC910190F081E02D88
:10044000C6011995892B79F7C501DF91CF911F91CD
:100450000F91FF90EF90DF90CF90BF90AF900895F5
:10046000FC01A089B1898C91A689B78982FD0FC052
:100470009C91818D8F5F8F73228D821749F0A18DA2
:10048000AE0FBF2FB11D5D969C93818F08958C9107
:100490000895FC01538D448D252F30E0842F90E08A
:1004A000821B930B541710F0CF960895019708956F
:1004B000FC01918D828D981761F0A28DAE0FBF2F38
:1004C000B11D5D968C91928D9F5F9F73928F90E08E
:1004D00008958FEF9FEF0895FC01918D828D9817FD
:1004E00031F0828DE80FF11D858D90E008958FEF3A
:1004F0009FEF0895FC01918D228D892F90E0805C03
:100500009F4F821B91098F739927089581E194E091
:10051000F1DF21E0892B09F420E0822F08958BE49C
:1005200095E0E8DF21E0892B09F420E0822F08958F
:100530008EEA94E0DFDF21E0892B09F420E0822FAE
:100540000895FC01A48DA80FB92FB11DA35ABF4F68
:100550002C91848D90E001968F739927848FA689C2
:10056000B7892C93A089B1898C91837080648C9316
:10057000938D848D981306C00288F389E02D8081C5
:100580008F7D80830895EF92FF920F931F93CF93F7
:10059000DF93EC0181E0888F9B8D8C8D98131AC0BE
:1005A000E889F989808185FF15C09FB7F894EE89A5
:1005B000FF896083E889F989808183708064808302
:1005C0009FBF81E090E0DF91CF911F910F91FF904D
:1005D000EF900895F62E0B8D10E00F5F1F4F0F73F5
:1005E0001127E02E8C8D8E110BC00FB607FCFACFB1
:1005F000E889F989808185FFF5CFCE01A2DFF2CFAE
:10060000EB8DEC0FFD2FF11DE35AFF4FF0829FB7EA
:10061000F8940B8FEA89FB8980818062D0CFCF93D9
:10062000DF93EC01888D8823B1F0AA89BB89E88922
:10063000F9898C9185FD03C0808186FD0CC00FB6C1
:1006400007FCF7CF8C9185FFF2CF808185FFEDCF3E
:10065000CE0177DFEACFDF91CF91089580E090E07F
:10066000892B21F065DF81110E94000080E090E07D
:10067000892B21F054DF81110E94000080E090E07E
:10068000892B49F080E090E0892B29F00E9400003E
:1006900081110E94000080E090E0892B21F036DF7C
:1006A00081110C94000008953FB7F89480910D04D7
:1006B00090910E04A0910F04B091100426B5A89B50
:1006C00005C02F3F19F00196A11DB11D3FBFBA2FE4
:1006D000A92F982F8827BC01CD01620F711D811DA4
:1006E000911D42E0660F771F881F991F4A95D1F729
:1006F00008958F929F92AF92BF92CF92DF92EF9226
:10070000FF924B015C01D0DF6B017C01CDDF6C19E6
:100710007D098E099F09683E734081059105B0F3FC
:1007200021E0821A9108A108B10888EEC80E83E082
:10073000D81EE11CF11C81149104A104B10431F70D
:10074000FF90EF90DF90CF90BF90AF909F908F90F1
:1007500008952FB7F8946091090470910A0480916C
:100760000B0490910C042FBF08950F931F93F1DF9A
:100770006093190470931A0480931B0490931C04D3
:1007800081E194E095DE97FF1CC0E3DF009119043E
:1007900010911A0420911B0430911C04601B710BF2
:1007A000820B930B009115041091160420911704ED
:1007B00030911804601771078207930708F38FEFD1
:1007C0009FEF1F910F9108950F931F93CF93DF9386
:1007D00000D000D000D01F92CDB7DEB78C018EE3E1
:1007E00092E09A8389831B821C821D821E821F8253
:1007F000188619861A86D801ED91FC910190F08136
:10080000E02DAE014F5F5F4F6AE070E0C8011995BF
:10081000A0DFF80160877187828793872A960FB6D9
:10082000F894DEBF0FBECDBFDF91CF911F910F9126
:1008300008958A579B4FFC0180810895AF92BF9223
:10084000CF92DF92EF92FF920F931F93CF93DF939C
:1008500000D01F921F92CDB7DEB7643671054CF001
:10086000FC01EA57FB4F2081F12CE12C222309F4F3
:1008700076C0DA017B018C01BC01615E7D4FED9198
:10088000FC910190F081E02DCA011995680128EED4
:10089000C21A2DEFD20A2FEFD6012C93F801E75E92
:1008A000FD4F2EEF208331968083319690833196D1
:1008B000292F280F209520833196E0821696FC92EE
:1008C00045E050E030E020E0DC011696A417B507C3
:1008D00034F06191260F311D4F5F5F4FF7CF7C01E0
:1008E000B8E0EB0EF11C800F911FFC01E15EFD4FA3
:1008F00020952083E1E0EE16E2E0FE06B4F4560116
:10090000C5018C199D098E159F054CF5D8011296CD
:100910008D919C91F50161915F01DC01ED91FC915C
:100920000190F081E02D1995EBCF86E292E09A8359
:10093000898383E08B8386E892E09D838C83D80152
:10094000ED91FC910190F081E02DAE014F5F5F4F82
:1009500067E070E0C8011995EE24EA94FE2CC70107
:100960000F900F900F900F900F90DF91CF911F91EC
:100970000F91FF90EF90DF90CF90BF90AF900895D0
:100980008FEB92E0089580EE92E00895FC01868559
:1009900097850895CF92DF92EF92FF92DC011D922E
:1009A0001D921D921C921397FB0130E020E04191B3
:1009B00050E0022E02C0440F551F0A94E2F7052EA4
:1009C000000C660B770BCD90DD90ED90FC901397AB
:1009D0004C295D296E297F294D935D936D937C93FE
:1009E0001397285F3F4F2032310509F7FF90EF90B2
:1009F000DF90CF900895FC014083518312821382CF
:100A00000895FB014081518162817381FC01428321
:100A100053836483758384E090E008950F931F935C
:100A2000CF93DF938C01EC012696CE01EADFD8014B
:100A30001C96ED91FC91CE01DF91CF911F910F910A
:100A40001994DC01FB0112964C91129713962C918C
:100A5000139714969C91149715968C91408321833B
:100A60009283838384E090E008958FEE92E008956E
:100A700086E092E0089580E193E0089581E393E0B9
:100A800008954F925F926F927F928F929F92AF9252
:100A9000BF92EF92FF920F931F93CF93DF9300D0FB
:100AA0001F92CDB7DEB77C018B01FB018191BF01A5
:100AB000F7018283CE0101966DDF89819A81AB8136
:100AC000BC814C015D01F5E08F0E911CA11CB11C95
:100AD000A8014C5F5F4FFA0125E030E02901712C3D
:100AE000612C481459046A047B0428F461816193E1
:100AF0002F5F3F4FF3CFF801E80FF91F1482F70182
:100B00005483438305960F900F900F900F90DF91C1
:100B1000CF911F910F91FF90EF90BF90AF909F905A
:100B20008F907F906F905F904F90089584E493E052
:100B3000089585E693E008954F925F926F927F92B9
:100B40008F929F92AF92BF92CF92DF92EF92FF92DD
:100B50000F931F93CF93DF93CDB7DEB72C970FB6CC
:100B6000F894DEBF0FBECDBF7C018B01DB018C9101
:100B700090E0F7019383828311962C91922B9383BB
:100B800082836E5F7F4FCE01019604DF89809A8059
:100B9000AB80BC8024013501F6E04F0E511C611C76
:100BA000711C98012B5F3F4FF90186E090E0AC018A
:100BB00070E060E0441555056605770520F4418135
:100BC00041930196F4CFB4016A5F7F4FF801E80DBD
:100BD000F91D1582D70115963C932E931497600F3B
:100BE000711FCE010596D6DEBAE08B0E911C4D80AA
:100BF0005E806F807884C401092C000CAA0BBB0BAB
:100C00005C016D01A40CB51CC61CD71CF801E80DD5
:100C1000F91DAF01401B510B70E060E04A155B0508
:100C20006C057D0538F42191AF0142505109DA017C
:100C30002C93EFCF480C591CB801640D751DFB01B6
:100C400031971082C4010197800F911FF70197839C
:100C50008683CE0109969EDE92012C5F3F4F8984E8
:100C60009A84AB84BC84A901032E000C660B770B1D
:100C7000480D591D6A1D7B1DF801E20FF31FCF01BE
:100C8000801B910BB0E0A0E084179507A607B7077B
:100C900028F48191DF0112978C93F1CFC901880D5F
:100CA000991DF801E80FF91FDF0111971C922150DF
:100CB0003109020F131FD70119961C930E93189731
:100CC0002181428150E070E060E0BA01552744275D
:100CD000522B2081422B2381722BF70142875387AD
:100CE0006487758704962C960FB6F894DEBF0FBE06
:100CF000CDBFDF91CF911F910F91FF90EF90DF90CB
:100D0000CF90BF90AF909F908F907F906F905F90AB
:100D10004F9008958EE793E008958FE993E008954A
:100D2000FC01DB014C9150E070E060E042835383B2
:100D30006483758311968C911197582B428353834A
:100D40006483758312968C911297682B4283538328
:100D50006483758313968C911397782B4283538306
:100D60006483758314964C91149750E070E060E0B2
:100D7000468357836087718715968C911597582BFA
:100D8000468357836087718716968C911697682BD8
:100D9000468357836087718717968C91782B46839B
:100DA00057836087718788E090E00895DC01FB013C
:100DB00012968C911297808313968C91139781834E
:100DC00014968C911497828315968C911597838332
:100DD00016968C911697848317968C911797858316
:100DE00018968C911897868319968C91878388E042
:100DF00090E00895FB0101900020E9F73197AF01E1
:100E0000461B570B00CBCF93DF93FC0144815581E8
:100E1000608171818BE495E0F6DAEC016DEA73E0B4
:100E20008BE495E0E7DF8C0F9D1FDF91CF91089554
:100E30000F931F93CF93DF93EC01DCDF8C016DEAFE
:100E400073E0CE01D7DF800F911FDF91CF911F910B
:100E50000F910895FC0180819181009711F00C940D
:100E6000AB1308950F931F93CF93DF93EC01888109
:100E70009981009759F02A813B812617370730F076
:100E800081E0DF91CF911F910F9108958B016F5FEA
:100E90007F4F0E943414009759F0998388831B83F5
:100EA0000A832C813D81232B59F7FC011082E8CF66
:100EB00080E0E7CFEF92FF920F931F93CF93DF93E2
:100EC0001F921F92CDB7DEB78C01FC0111821082F8
:100ED000138212821582148270E060E0C3DFF80191
:100EE00020813181811130C02115310519F0C901EE
:100EF0000E94AB13F80111821082158214821382B2
:100F0000128233DC97FD28C08A30910529F189834C
:100F10001A82F801E480F580FFEFEF1AFF0AB701AB
:100F2000C801A0DF882369F3F80120813181848121
:100F30009581BE016F5F7F4F820F931F0E9419152D
:100F4000F801F582E482DDCF158214826FEA73E046
:100F5000C9010E941915D5CFC8010F900F90DF91DC
:100F6000CF911F910F91FF90EF9008950F931F93D2
:100F7000CF93DF93CDB7DEB7A1970FB6F894DEBF5E
:100F80000FBECDBF8C01FC01628181E194E0FBDAF0
:100F900060EB73E08BE495E02DDFF80182819381B3
:100FA000A481B5819927AA27BB2719A2FE01B19672
:100FB000AC01BD014F7055276627772724E0B69511
:100FC000A795979587952A95D1F74A30E4F4405D27
:100FD00042930097A105B10559F7309721F0BF0161
:100FE0008BE495E007DF60EC73E08BE495E020DFB5
:100FF000A1960FB6F894DEBF0FBECDBFDF91CF91A3
:101000001F910F910895495CE3CF2F923F924F9229
:101010005F926F927F928F929F92AF92BF92CF9288
:10102000DF92EF92FF920F931F93CF93DF93CDB791
:10103000DEB72E970FB6F894DEBF0FBECDBF8C0182
:101040006B01DB018D909D90AD90BC90FC01828185
:101050009381A481B58188159905AA05BB0570F413
:10106000B401660F771F660F771F828593850E94F4
:101070003414D8011B969C938E931A97F8018282A0
:101080009382A482B582C60140E050E0BA01A4E098
:10109000EA2EF12C98012A5F3F4FDC011596EC9166
:1010A000159716964C901697512C712C612C320185
:1010B000552444245E2A1496EC9114974E2A1796D0
:1010C000EC917E2AD7011701E4E02E0E311C71014C
:1010D0000496F80182809380A480B5804815590554
:1010E0006A057B05A8F4468257826086718614974C
:1010F000A284B384AA0DBB1DE4E0BE2EF9010190C9
:101100000D92BA94E1F74F5F5F4F6F4F7F4FC5CF9E
:1011100084859585A685B78584159505A605B705AB
:1011200070F4B201660F771F660F771F8489958967
:101130000E943414D80155969C938E935497F801CD
:101140004486558666867786C601820D931D412C9E
:10115000512C32011C019801205F3F4FDC01119698
:101160006C91119712968C901297912CB12CA12C06
:10117000540199248824962A6C91862A13966C919E
:10118000B62AB4E0EB0EF11CF8014485558566855E
:1011900077854416550666067706C0F4808A918ADC
:1011A000A28AB38ABC0162197309A489B589A60F02
:1011B000B71F64E0F90101900D926A95E1F7BFEF66
:1011C0004B1A5B0A6B0A7B0A0496C8CF86899789FB
:1011D000A08DB18D88159905AA05BB0560F4B401F1
:1011E000660F771F848D958D0E943414D8015D960B
:1011F0009C938E935C97F801868A978AA08EB18E15
:10120000412C512C32011801FAE12F0E311CF8014A
:1012100086899789A08DB18D481659066A067B0686
:1012200008F05BC0B6016E0D7F1DCE010196B2DBEA
:1012300097012C5F3F4F3E872D8789809A80AB8036
:10124000BC80C901032E000CAA0BBB0BAC01BD0175
:10125000480D591D6A1D7B1D49875A876B877C87FE
:10126000F901EC0DFD1D9F012C193D09B90190E01C
:1012700080E029853A854B855C8562177307840772
:10128000950728F42191DF0112972C93ECCFED8480
:10129000FE84E80CF91CF601EE0DFF1D319710825B
:1012A0008D859E8501978C0D9D1DD8015B969C9325
:1012B0008E935A97C201880F991F5C96ED91FC910D
:1012C000E80FF91FD1018D919C9191838083BFEF2D
:1012D0004B1A5B0A6B0A7B0A9ACFC7012E960FB690
:1012E000F894DEBF0FBECDBFDF91CF911F910F915C
:1012F000FF90EF90DF90CF90BF90AF909F908F9036
:101300007F906F905F904F903F902F9008952F9215
:101310003F924F925F926F927F928F929F92AF9285
:10132000BF92CF92DF92EF92FF920F931F93CF93D2
:10133000DF93CDB7DEB7A6970FB6F894DEBF0FBE2A
:10134000CDBF8C0106DA4B015C01980125573B4F5C
:101350003E8B2D8BF90180819181A281B381750132
:101360006401C81AD90AEA0AFB0AD701C601893FF3
:101370009A42A105B10510F035971082180134E8A2
:10138000231A3BEF330AD1018D919C91892B79F07F
:10139000F801E157FB4F80819181A281B3818815CB
:1013A0009905AA05BB0518F4F10111821082980174
:1013B0002C573B4F3A8B298BA80140585B4F5C8BD5
:1013C0004B8BC8014896988F8F8BD801AA57BB4F7B
:1013D000BC8FAB8FF801EC56FB4FFE8FED8F215F7A
:1013E0003F4F38A32F8F42505109588B4F87865952
:1013F0009B4F9A8F898F1996BAA3A9A3A50194012F
:101400002C5E3F4F4F4F5F4F2BA33CA34DA35EA3DA
:10141000F80184899589A689B789892B8A2B8B2B1A
:10142000B1F5D80112968D919C91DC01ED91FC9162
:101430000284F385E02D19959C0197FF3BC0F801CC
:10144000EA57FB4F80818823F9F07801B9E7EB1A5E
:10145000BBEFFB0AF70180819181A281B381A501D5
:101460009401281B390B4A0B5B0BDA01C901853C3F
:101470009940A105B10540F0C801A6D9D7018D92C8
:101480009D92AD92BC92139790E080E0B0C161D97B
:10149000681979098A099B09F801C488D588E68802
:1014A000F788C616D706E806F90608F0BACF8EEF19
:1014B0009FEF9DC1A989BA898D919C911197820F47
:1014C000931F8D939C93F1014081518147305105C9
:1014D000F9F4A98DBA8D8D919C911197AC014F5F54
:1014E0005F4F4D935C93800F911FFC01208FAF8560
:1014F000B8898D919C91119701978D939C93892B1D
:1015000009F086CF88E090E0F1019183808380CF5D
:101510004115510519F52F3F310581F481E090E027
:1015200091838083CBA0DCA0EDA0FEA0A9A1BAA1ED
:10153000CD92DD92ED92FC9213976ACF0AD9681989
:1015400079098A099B09693873418105910508F475
:101550005FCFF801EA57FB4F1082A9CF4130510508
:1015600081F42E3F310519F482E090E0CDCF118255
:101570001082EB8DFC8D808181114ACFC80124D966
:1015800047CF4230510591F4AF85B8892D933C93F4
:10159000E98DFA8D1182108283E090E0D1018D9364
:1015A0009C93E989FA893183208332CF43305105F6
:1015B00071F4322F2227AF85B8898D919C911197B4
:1015C000280F391F2D933C9384E090E09DCF443049
:1015D000510571F460E071E0D1D78F3F910529F496
:1015E00085E090E09183808313CF1182108210CF29
:1015F0004530510569F4AB89BC892D933C9386E055
:1016000090E091838083A989BA892D933C9300CF80
:1016100046305105A1F4322F2227EB89FC898081C5
:101620009181280F391F3183208387E090E0D10119
:101630008D939C93EF85F8898081918160CF4830AC
:10164000510509F0E5CE1182108260E071E096D775
:101650008F3F910509F0DCCEAB89BC89ED91FC91FF
:10166000309709F0DDC0C801AFD882E392E09A83D9
:1016700089831C821B828FEA93E09E838D839887E7
:101680008F839A8789871B861C861D861E86680124
:10169000B8EECB1ABBEFDB0A7801E6EBEE1AEBEF04
:1016A000FE0A412C22E0522E612C712CD601ED91C4
:1016B000FC913097A9F1848195819C838B838081F3
:1016C00091819E838D8382819381DC01ED91FC91D8
:1016D0000480F581E02D199598878F83D601ED91CF
:1016E000FC9182819381DC01ED91FC910680F78170
:1016F000E02D19959A8789874B865C866D867E8654
:10170000D601ED91FC9160857185D801ED91FC9138
:101710000190F081E02DAE014F5F5F4FC801199538
:10172000B2E0CB0ED11CEC14FD0409F0BFCF412C6C
:1017300092E0592E612C712CF701A081B181109794
:10174000E1F112968D919C9113979C838B83149653
:101750008D919C9115979E838D83ED91FC911197AE
:101760000480F581E02DCD01199598878F83D701ED
:101770008D919C91DC01ED91FC910680F781E02D2B
:1017800019959A8789874B865C866D867E86D801F7
:10179000ED91FC91C080D180F70180819181DC01C5
:1017A000ED91FC910280F381E02D1995AE014F5F20
:1017B0005F4FBC01C801F6011995F2E0EF0EF11C74
:1017C000E214F30409F0B8CFF801EA57FB4F81E0C7
:1017D0008083319680829182A282B382AD89BE8954
:1017E0008D929D92AD92BC9213978FEF9FEFA6962C
:1017F0000FB6F894DEBF0FBECDBFDF91CF911F9122
:101800000F91FF90EF90DF90CF90BF90AF909F909F
:101810008F907F906F905F904F903F902F900895A2
:10182000EA30F10509F09BC08EE392E09A83898348
:101830001B821C821D821E821F82188619861A86B0
:101840000E94A903F801C084D184E284F3849B013F
:10185000AC012C193D094E095F0969017A016F89B4
:10186000788DCE0101965CDAC701B60128EE33E02F
:1018700040E050E096D669017A019B01AC018B8172
:101880009C81AD81BE818C0D9D1DAE1DBF1D8B83C6
:101890009C83AD83BE8360E472E48FE090E05FD60A
:1018A000CF80D884E984FA84DC01CB018C0D9D1DA6
:1018B000AE1DBF1D8F839887A987BA870E94A90391
:1018C000CF80D884E984FA8436E3D31A35E6E30A74
:1018D00034ECF30A28EE33E040E050E062D6290110
:1018E0003A019B01AC0160E472E48FE090E037D6EE
:1018F000A7019601261B370B480B590BCA01B901EA
:101900002B813C814D815E81215031094109510972
:1019100069017A01C418D508E608F70826013701DD
:1019200020E03AEC4AE95BE33CD6420E531E641ECB
:10193000751ED8011C964D925D926D927C921F97F8
:10194000F801608B718B828B938B0E94A903AD8908
:10195000BE896D937D938D939C93139759CDE630FB
:10196000F10551F46F89788D8D8D9E8D4EDB81E070
:10197000EF8DF8A180834CCDEB30F10521F4AB8DD8
:10198000BC8D1C9245CDEF53FE4FEE0FFF1FE00FB5
:10199000F11F80819181009709F43ACDDC01ED912E
:1019A000FC910190F081E02D6F89788D199530CDF3
:1019B0004F925F926F927F928F929F92AF92BF925F
:1019C000CF92DF92EF92FF920F931F93CF93DF930B
:1019D000EC017B018A81FB0180838B8181838C8177
:1019E00082838D8183833496412C512C320104E013
:1019F00010E09F012F5F3F4FCF010296DF0113964A
:101A0000A8010C5F1F4F8A809B80AC80BD8048146A
:101A100059046A047B04C8F4AA85BB85A40FB51FCA
:101A200014974C9111962C91119712969C911297A4
:101A300013968C9140832183928383838FEF481A7E
:101A4000580A680A780A3496D4CF4C8540834D856D
:101A5000F90140832E85FC0120838F858C93F7014B
:101A6000E00FF11F412C512C3201AF019F012F5F7C
:101A70003F4FCF010296DF0113960C5F1F4F8C84FE
:101A80009D84AE84BF84481459046A047B04D8F44E
:101A9000CF01841B950BAC89BD89A80FB91F3C9160
:101AA00011962C91119712969C91129713968C91E6
:101AB00030832183928383838FEF481A580A680A00
:101AC000780A3496D3CF4E8940834F89F9014083F9
:101AD000288DFC012083898D8C93412C512C32015F
:101AE0008E899F89A88DB98D481659066A067B068E
:101AF00078F55201AA0CBB1CEC8DFD8DEA0DFB1D87
:101B0000A081B181FD0101900020E9F731976F01BB
:101B1000CA1ADB0AA60170E060E0C701800F911FBE
:101B20000E94FB040C5F1F4F8C8D9D8DA80EB91E6B
:101B3000F50160817181A601C701800F911F70D7E7
:101B40000C0D1D1DFFEF4F1A5F0A6F0A7F0AC8CFE9
:101B5000C801DF91CF911F910F91FF90EF90DF901F
:101B6000CF90BF90AF909F908F907F906F905F903D
:101B70004F900895EF92FF920F931F93CF93DF93AF
:101B80008C017B01DC0112962C911297FB012193B1
:101B9000CF011396ED91FC91EF0109900020E9F738
:101BA0002197CE1BDF0BAE0170E060E00E94FB04CA
:101BB000D80113966D917C91AE01C701059630D77F
:101BC000CE010596DF91CF911F910F91FF90EF907D
:101BD0000895CF92DF92EF92FF920F931F93CF93CE
:101BE000DF936C01EB01DC0112968C9112978883D4
:101BF00013968C91139789831496ED91FC91DF01D4
:101C00000D900020E9F78D01015011090E1B1F0BEB
:101C1000A80170E060E0CE0102960E94FB04F6018C
:101C200064817581A801CE010696FAD6C801069690
:101C3000F601A681B781FD0101900020E9F73197F7
:101C40007F01EA1AFB0AA70170E060E08C0F9D1F7C
:101C50000E94FB04065F1F4FD60116966D917C9182
:101C6000A701CE01800F911FDBD60E0D1F1DF601BF
:101C7000A085B185FD0101900020E9F731977F0132
:101C8000EA1AFB0AA70170E060E0CE01800F911F05
:101C90000E94FB040C5F1F4FD60118966D917C913A
:101CA000A701CE01800F911FBBD6C701800F911FE6
:101CB000F6016285438534852585C80FD91F688361
:101CC00049833A832B830496DF91CF911F910F9123
:101CD000FF90EF90DF90CF9008951F920F920FB674
:101CE0000F9211240BB60F922F933F934F935F9354
:101CF0006F937F938F939F93AF93BF93EF93FF93D4
:101D000081E194E00E94A102FF91EF91BF91AF9118
:101D10009F918F917F916F915F914F913F912F9103
:101D20000F900BBE0F900FBE0F901F9018951F9233
:101D30000F920FB60F9211240BB60F922F933F9371
:101D40004F935F936F937F938F939F93AF93BF93C3
:101D5000EF93FF9381E194E00E943002FF91EF91B5
:101D6000BF91AF919F918F917F916F915F914F91B3
:101D70003F912F910F900BBE0F900FBE0F901F90B1
:101D800018951F920F920FB60F9211240BB60F9257
:101D90002F933F934F935F936F937F938F939F9373
:101DA000AF93BF93EF93FF938BE495E00E94A10262
:101DB000FF91EF91BF91AF919F918F917F916F9123
:101DC0005F914F913F912F910F900BBE0F900FBEDF
:101DD0000F901F9018951F920F920FB60F9211241B
:101DE0000BB60F922F933F934F935F936F937F9315
:101DF0008F939F93AF93BF93EF93FF938BE495E003
:101E00000E943002FF91EF91BF91AF919F918F910E
:101E10007F916F915F914F913F912F910F900BBEEA
:101E20000F900FBE0F901F9018951F920F920FB634
:101E30000F9211240BB60F922F933F934F935F9302
:101E40006F937F938F939F93AF93BF93EF93FF9382
:101E50008EEA94E00E94A102FF91EF91BF91AF91B1
:101E60009F918F917F916F915F914F913F912F91B2
:101E70000F900BBE0F900FBE0F901F9018951F92E2
:101E80000F920FB60F9211240BB60F922F933F9320
:101E90004F935F936F937F938F939F93AF93BF9372
:101EA000EF93FF938EEA94E00E943002FF91EF914E
:101EB000BF91AF919F918F917F916F915F914F9162
:101EC0003F912F910F900BBE0F900FBE0F901F9060
:101ED00018951F920F920FB60F9211242F933F93D4
:101EE0008F939F93AF93BF938091090490910A04BD
:101EF000A0910B04B0910C043091080423E0230F4F
:101F00002D3758F50196A11DB11D2093080480932B
:101F1000090490930A04A0930B04B0930C048091DD
:101F20000D0490910E04A0910F04B091100401963D
:101F3000A11DB11D80930D0490930E04A0930F0476
:101F4000B0931004BF91AF919F918F913F912F91CA
:101F50000F900FBE0F901F90189526E8230F029642
:101F6000A11DB11DD2CF109214041092130448EE9B
:101F700053E060E070E040931504509316046093C2
:101F80001704709318048AE492E0909312048093EB
:101F9000110425E331E030931E0420931D0424E353
:101FA00031E03093200420931F0420E331E030938C
:101FB00022042093210421E331E030932404209370
:101FC000230422E331E0309326042093250426E302
:101FD00031E0309328042093270410922A041092B1
:101FE0002B0410922C0410922D0410924E05109286
:101FF0004D0540934F0550935005609351057093E4
:10200000520590934C0580934B052DEC30E03093B6
:102010005805209357052CEC30E030935A05209357
:10202000590528EC30E030935C0520935B0529ECE2
:1020300030E030935E0520935D052AEC30E030936C
:10204000600520935F052EEC30E03093620520930D
:102050006105109264051092650510926605109254
:1020600067051092B1041092B0044093B2045093EB
:10207000B3046093B4047093B5049093AF04809359
:10208000AE0485EC90E09093BB048093BA0484EC9A
:1020900090E09093BD048093BC0480EC90E090931A
:1020A000BF048093BE0481EC90E09093C1048093C0
:1020B000C00482EC90E09093C3048093C20486EC49
:1020C00090E09093C5048093C4041092C7041092CA
:1020D000C8041092C9041092CA0488E692E0909352
:1020E000F9058093F8058BE495E09093FB058093C8
:1020F000FA0580E092ECA1E0B0E08093FC059093BB
:10210000FD05A093FE05B093FF0510927E0A8CE5B5
:1021100092E090938D0A80938C0A1092A20A1092FA
:10212000A30A1092A40A1092A50A1092A90A10926A
:10213000A80AE0E1FAE0119211928AE0E234F8078D
:10214000D1F7E2E4FAE0119211928AE0E437F8075D
:10215000D1F7E0E1F6E080E198E011928E179F0759
:10216000E1F7E0E1F8E011928AE0E031F807D9F711
:1021700010928E0A10928F0A1092900A1092910A71
:102180001092970A1092960A1092980A1092990A41
:1021900010929A0A10929B0A1092A10A1092A00A19
:1021A00010920C0610920D0610920E0610920F0659
:1021B00082E792E09093E9058093E8058EE792E04C
:1021C0009093EF058093EE051092F0051092F105C3
:1021D0001092F2051092F30586EB97E09093F505C7
:1021E0008093F40581E090E09093F7058093F605E5
:1021F00083EC93E09093ED058093EC050895CF93E5
:10220000DF9300D000D0CDB7DEB7789484B582607C
:1022100084BD84B5816084BD85B5826085BD85B58A
:10222000816085BD80916E00816080936E00109208
:102230008100809181008260809381008091810083
:102240008160809381008091800081608093800014
:102250008091B10084608093B1008091B000816072
:102260008093B00080919100826080939100809172
:1022700091008160809391008091900081608093B3
:1022800090008091A10082608093A1008091A100C4
:1022900081608093A1008091A00081608093A00064
:1022A00080912101826080932101809121018160D0
:1022B0008093210180912001816080932001809191
:1022C0007A00846080937A0080917A0082608093A3
:1022D0007A0080917A00816080937A0080917A0000
:1022E000806880937A001092C10040E855E260E077
:1022F00070E08EEA94E00E941B014091FC05509131
:10230000FD056091FE057091FF058091FA059091A1
:10231000FB050E941B011092750A1092740A10921C
:10232000770A1092760A10927B0A10927A0A10921B
:10233000790A1092780AE2E4FAE090E080E02191D4
:102340003191232B09F0ECC0FC01EE0FFF1FEE5B77
:10235000F54F28EE35E0318320838C599F4F9093C1
:10236000EB058093EA0581E00E947B0167EC73E056
:102370008BE495E00E94180780E00E947B0164EFE7
:1023800071E080E090E00E9479036AED73E081E102
:1023900094E00E94180768EE73E080E090E00E94ED
:1023A000790381E194E00E947A021816190664F418
:1023B000CE0101960E945A07CE0101960E940307A2
:1023C000CE0101960E942A0764EF71E080E090E060
:1023D0000E9479036DED73E081E194E00E9418079B
:1023E00068EE73E080E090E00E94790381E194E080
:1023F0000E947A021816190664F4CE0101960E9412
:102400005A07CE0101960E940307CE0101960E9451
:102410002A0764EF71E080E090E00E94790362EEA9
:1024200073E081E194E00E94180768EE73E080E0B9
:1024300090E00E94790381E194E00E947A021816EC
:10244000190664F4CE0101960E945A07CE01019646
:102450000E940307CE0101960E942A0764EF71E0F3
:1024600080E090E00E9479036DEE73E081E194E0FA
:102470000E94180768EE73E080E090E00E94790304
:1024800081E194E00E947A021816190664F4CE01E4
:1024900001960E945A07CE0101960E940307CE01C1
:1024A00001960E942A0764EF71E080E090E00E94AC
:1024B000790363EF73E081E194E00E94180768EE0E
:1024C00073E080E090E00E94790381E194E00E9453
:1024D0007A021816190664F4CE0101960E945A0772
:1024E000CE0101960E940307CE0101960E942A07A1
:1024F00064EF71E080E090E00E9479036BEF73E09D
:102500008BE495E00E94180781E00E947B0161E066
:1025100070E080E090E00E9479030E942E0326CFB5
:1025200001968931910509F00ACF1DCF09D0A59FE9
:10253000900DB49F900DA49F800D911D11240895BE
:10254000A29FB001B39FC001A39F700D811D1124F4
:10255000911DB29F700D811D1124911D0895DB0105
:102560008F939F93E3DFBF91AF91A29F800D911D49
:10257000A39F900DB29F900D1124089597FB072EF5
:1025800016F4009406D077FD08D035D007FC05D0AE
:102590003EF4909581959F4F0895709561957F4F7A
:1025A0000895A1E21A2EAA1BBB1BFD010DC0AA1F94
:1025B000BB1FEE1FFF1FA217B307E407F50720F0AC
:1025C000A21BB30BE40BF50B661F771F881F991F27
:1025D0001A9469F760957095809590959B01AC0170
:1025E000BD01CF010895EE0FFF1F881F8BBF07901D
:1025F000F691E02D1994AA1BBB1B51E107C0AA1F3D
:10260000BB1FA617B70710F0A61BB70B881F991F93
:102610005A95A9F780959095BC01CD0108950F9327
:102620001F93CF93DF938230910510F482E090E006
:10263000E091AC0AF091AD0A30E020E0B0E0A0E01B
:10264000309799F42115310509F44AC0281B390B3C
:1026500024303105D8F58A819B816115710589F196
:10266000FB0193838283FE0111C04081518102816D
:10267000138148175907E0F04817590799F4109744
:1026800061F012960C93129713961C933296CF0119
:10269000DF91CF911F910F9108950093AC0A109391
:1026A000AD0AF4CF2115310551F04217530738F028
:1026B000A901DB019A01BD01DF01F801C1CFEF01E2
:1026C000F9CF9093AD0A8093AC0ACDCFFE01E20F13
:1026D000F31F819391932250310939832883D7CFF7
:1026E0002091AA0A3091AB0A232B41F420910202D7
:1026F000309103023093AB0A2093AA0A2091000282
:10270000309101022115310541F42DB73EB74091BA
:10271000040250910502241B350BE091AA0AF091A6
:10272000AB0AE217F307A0F42E1B3F0B281739075B
:1027300078F0AC014E5F5F4F2417350748F04E0F1D
:102740005F1F5093AB0A4093AA0A819391939FCF46
:10275000F0E0E0E09CCFCF93DF930097E9F0FC013D
:10276000329713821282A091AC0AB091AD0AED01AA
:1027700030E020E01097A1F420813181820F931F77
:102780002091AA0A3091AB0A2817390709F061C0D5
:10279000F093AB0AE093AA0ADF91CF910895EA0182
:1027A000CE17DF07E8F54A815B819E01411551058F
:1027B000B1F7E901FB83EA8349915991C40FD51F11
:1027C000EC17FD0761F4808191810296840F951FBB
:1027D000E90199838883828193819B838A83F0E0D6
:1027E000E0E012968D919C9113970097B9F52D9189
:1027F0003C911197CD010296820F931F2091AA0A56
:102800003091AB0A2817390739F6309751F51092F5
:10281000AD0A1092AC0AB093AB0AA093AA0ABCCF3F
:10282000D383C28340815181840F951FC817D90774
:1028300061F44E5F5F4F88819981480F591F518322
:1028400040838A819B81938382832115310509F01E
:10285000B0CFF093AD0AE093AC0A9ECFFD01DC014E
:10286000C0CF13821282D7CF4F925F926F927F9226
:102870008F929F92AF92BF92CF92DF92EF92FF9290
:102880000F931F93CF93DF938C01009791F4CB01AB
:10289000DF91CF911F910F91FF90EF90DF90CF903C
:1028A000BF90AF909F908F907F906F905F904F9070
:1028B000B6CEFC01E60FF71F9C0122503109E2174A
:1028C000F30708F4AAC0D901CD91DC911197C6177E
:1028D000D70718F1C530D10570F0CE0104978617DF
:1028E000970748F0C61BD70B2297C193D1936D93DE
:1028F0007C93CF0130DFC801DF91CF911F910F9101
:10290000FF90EF90DF90CF90BF90AF909F908F900F
:102910007F906F905F904F9008955B01AC1ABD0A55
:102920004C018C0E9D1EA091AC0AB091AD0A512CA9
:10293000412CF12CE12C109731F58091AA0A90914D
:10294000AB0A8815990509F05CC04616570608F0D1
:1029500058C08091000290910102009741F48DB718
:102960009EB74091040250910502841B950BE81715
:10297000F90708F052C0F093AB0AE093AA0AF901F4
:1029800071836083B8CF8D919C91119712966C9052
:10299000129713967C901397A815B90559F56C01F9
:1029A00042E0C40ED11CCA14DB0420F1AC014A1968
:1029B0005B09DA011296159780F062827382518367
:1029C0004083D9016D937C93E114F10471F0D70138
:1029D0001396FC93EE9312978ECF22968C0F9D1F29
:1029E000F90191838083F301EFCFF093AD0AE09377
:1029F000AC0A81CF4816590608F42C017D01D30199
:102A00009ACFCB010CDE7C01009739F0AE01B80102
:102A100007D0C801A0DE87016ECF10E000E06BCFC9
:102A2000FB01DC0102C001900D9241505040D8F7EB
:102A30000895FB01DC0101900D920020E1F708955B
:042A4000F894FFCF38
:102A44000000AE0A8000726F7373657269616C5F17
:102A54006D7367732F52657175657374506172611C
:102A64006D0000000000BA0D41053E053B05000065
:102A74000000E90D9C059905960500000000D606A6
:102A840090068D068A0600000000C3020302490274
:102A94000F037A0258026C0200000000D80C0508EB
:102AA40038053505000000001E04870919040000DC
:102AB40000000E05C604C304C00400000000210584
:102AC4000105C304C0044D657373616765206672B4
:102AD4006F6D206465766963652064726F707065DC
:102AE400643A206D657373616765206C6172676514
:102AF40072207468616E206275666665722E006469
:102B040061353930396662653337386165616638F5
:102B14003565353437653833306363316262370085
:102B24007374645F6D7367732F496E743332003945
:102B3400663065393862646136353938313938364A
:102B440064646635336166613761343065343900F5
:102B5400313161626437333163323539333332367C
:102B64003163643631383362643132643632393534
:102B740000726F7373657269616C5F6D7367732F35
:102B84004C6F6700306164353166383866633434BD
:102B94003839326638633130363834303737363482
:102BA4003630303500726F7373657269616C5F6DB6
:102BB4007367732F546F706963496E666F00636443
:102BC4003731363663373463353532633331316602
:102BD4006263633266653561376263323839007324
:102BE40074645F6D7367732F54696D65000D0A001B
:102BF400776520686176652073656E74203078008F
:102C0400203B006E66630053746172742048432D48
:102C1400313220436F6E6669670041540041542B82
:102C2400560041542B44454641554C540041542BC5
:102C340050380041542B43303035005361766520C1
:082C44002620457869740000A8
:00000001FF
